:020000040800F2
:1000000018080020DD010008E70F0008E30F0008D2
:10001000E50F00088704000809120008000000002E
:10002000000000000000000000000000ED0F0008CC
:100030008904000800000000E90F0008EF0F000825
:10004000F7010008F7010008F7010008F7010008B0
:10005000F7010008EB0F0008F7010008F70100089E
:10006000F7010008F7010008F7010008F701000890
:10007000F7010008F7010008F7010008F701000880
:10008000F7010008F7010008F7010008F701000870
:10009000F7010008F7010008F7010008F701000860
:1000A000F7010008F7010008F7010008F701000850
:1000B000F7010008F7010008F7010008F701000840
:1000C000F7010008F7010008F7010008F701000830
:1000D000F7010008F7010008F7010008F701000820
:1000E000F7010008F7010008F7010008F701000810
:1000F000F7010008F7010008F7010008F701000800
:10010000F7010008F7010008F7010008F7010008EF
:10011000F7010008F7010008F7010008F7010008DF
:10012000F7010008F7010008F7010008F7010008CF
:10013000F70100080000000000000000F7010008BF
:10014000F7010008F7010008F7010008F7010008AF
:10015000F7010008F7010008F7010008F70100089F
:10016000F7010008F7010008F7010008F70100088F
:10017000F7010008F7010008F7010008000000007F
:1001800000000000F701000800000000000000006F
:10019000F70100080000000000000000F70100085F
:1001A000000000000000000000000000F70100084F
:1001B000F7010008F7010008F7010008F70100083F
:1001C000F7010008DFF810D000F0EAF80048004717
:1001D000A5200008AFF300801808002006488047DB
:1001E00006480047FEE7FEE7FEE7FEE7FEE7FEE71C
:1001F000FEE7FEE7FEE7FEE789100008C5010008FC
:100200002DE9F05F0546002092469B46884606464B
:10021000814640241BE0284641464746224600F0DE
:1002200076F853465A46C01A914110D311461846E3
:10023000224600F05DF82D1A67EB01084F46224672
:100240000120002100F054F817EB00094E41201E58
:10025000A4F10104DFDC484631462A464346BDE8A6
:10026000F09F00000649074A0868504343F23902EC
:10027000104408604008704701490860704700005A
:10028000340000206D4EC641D2B201E000F8012BCF
:10029000491EFBD270470022F6E710B513460A4606
:1002A00004461946FFF7F0FF204610BD421C10F827
:1002B000011B0029FBD1801A704710B5002200E015
:1002C000521C835C8C5CA34201D1002BF8D1D8B2C4
:1002D000E1B2401A10BD70B5064600F0BBFF0468DD
:1002E00005460A220021304600F021F82C6070BD3E
:1002F000202A04DB203A00FA02F1002070479140E6
:10030000C2F1200320FA03F3194390407047202ADA
:1003100004DB203A21FA02F00021704721FA02F3AF
:10032000D040C2F1200291400843194670472DE9A0
:10033000F04791460F4680460446002614F8015BBC
:100340002DB100F03FF80068405DC007F6D12B2DBD
:1003500002D02D2D18D0641E4A463946204600F0A2
:1003600035F827B13968A14201D1C7F8008071057D
:100370004FF002040BD54042002803DD00F06AFF75
:100380000460A007BDE8F08746F48066E4E7002833
:10039000F8DA00F05FFF04606FF00040F2E7000061
:1003A000064C074D06E0E06840F0010394E80700C2
:1003B00098471034AC42F6D3FFF708FFB425000885
:1003C000D425000800487047702400082DE9F05F2C
:1003D00082460078002715468B460AF10104B9468B
:1003E000302801D09DB113E014F8010B01277828C3
:1003F00003D0582801D045B10AE00DB1102D07D126
:100400000027102514F8010B02E0082500E00A255A
:100410000026B0460EE005FB080005FB06F10127AB
:1004200001EB10461FFA80F8B6F5803F00D3B946BD
:1004300014F8010B294600F018F80028EBDABBF19C
:10044000000F05D00FB1641E00E05446CBF8004009
:10045000B9F1000F06D000F0FDFE02210160C81EB8
:10046000BDE8F09F48EA0640FAE73A2800D2303863
:1004700020F02002412A01D3A2F13700884201D3A3
:100480004FF0FF307047FEE77047000070B504463C
:1004900000F0FCF80546601C02D0044800780444D3
:1004A00000F0F4F8401BA042FAD370BD24000020F5
:1004B0002DE9F84FDFF8ACA1002201240AF1040B6A
:1004C00003254FF00F090BF1040E00BF0B6804FA6F
:1004D00002F63340B34272D10F7907F00307012FC0
:1004E00001D0022F16D187684FEA420805FA08FCAE
:1004F00027EA0C07D1F80CC00CFA08FC4CEA070CF0
:10050000C0F808C04768B7430E79C6F30016964096
:100510003E4346600E79F643B6070AD0C6684FEAF6
:10052000420C05FA0CF7BE438F6807FA0CF7374305
:10053000C7600E7906F00306022E10D1D60800EB34
:100540008608D8F8206057074FEAD76C09FA0CF7ED
:10055000BE430F6907FA0CF73743C8F820700668E6
:100560004FEA420C05FA0CF7BE430F7907F0030778
:1005700007FA0CF7374307604E68F6006BD53A4E22
:10058000376847F480473760366822F0030706F47F
:1005900080460096354E07EB060CDCF80868970796
:1005A0004FEA177809FA08F7BE43314FB84201D134
:1005B00000271FE02F4FB84202D101271AE04AE07E
:1005C0002D4FB84201D1022714E02C4FB84201D17F
:1005D00003270FE02A4FB84201D104270AE0294F30
:1005E000B84201D1052705E0274FB84201D10627BF
:1005F00000E0072707FA08F73743CCF80878DAF85D
:1006000000605746D1F804C09E435FEACC3C00D559
:100610001E433E60DBF800605F46D1F804C09E4395
:100620005FEA8C3C00D51E433E60DEF800607746F2
:10063000D1F804C09E435FEACC2C00D51E433E6037
:10064000084F0C373E68D1F804C09E435FEA8C2CFB
:1006500000D51E433E60521C102AFFF437AFBDE8A0
:10066000F88F0000003C0140443802400030014057
:10067000000002400004024000080240000C02405A
:100680000010024000140240001802400148806837
:10069000704700002400002002488168027811445D
:1006A00081607047240000200B4810B5016841F4B8
:1006B00000710160016841F480610160016841F4EA
:1006C00080710160032000F077F8002000F006F848
:1006D00000F024F8002010BD003C024070B50D4D24
:1006E00004464FF47A712878B1FBF0F00A490968A2
:1006F000B1FBF0F000F042FB48B9102C07D2002209
:100700002146501E00F038F800206C6070BD0120BA
:1007100070BD000024000020300000200E4808B505
:10072000016841F480410160006800F4804000905D
:100730000948001F016841F08051016000680022F3
:1007400000F0805000901146052000F015F8BDE83B
:100750000840052000F002B844380240002809DBB8
:1007600000F01F02012191404009800000F1E020CB
:10077000C0F8001170470000F0B40E4B1B680C4627
:10078000C3F30223C3F10705042D00D90425191D65
:10079000072901D2002300E0DB1E012606FA05F13D
:1007A000491E214099409E40761E16403143F0BCC0
:1007B00000F040BD0CED00E0064900F007020868BB
:1007C0004FF6FF03184040EA0220034A1043086036
:1007D000704700000CED00E00000FA052DE9F0473D
:1007E0000E46050065D0DFF81481D8F80000F7B296
:1007F00000F00F00B04207D288F80070D8F800006F
:1008000000F00F00B04254D128683D4C810712D54A
:10081000400703D5206840F4E050206028780007A6
:1008200003D5206840F4604020602068A96820F06B
:10083000F000084320602878C0072DD03049686850
:100840000839012812D0022813D0032811D00968D2
:10085000890700292DDA216821F003010143216075
:10086000FFF714FF814641F2883A0EE009688903D8
:10087000EFE709688901ECE7FFF708FFA0EB090142
:10088000514502D90320BDE8F0872068696800F06F
:100890000C00B0EB810FEFD1D8F80010404601F00A
:1008A0000F01B14207D90770006800F00F00B04295
:1008B00001D00120E7E72878400705D52068E968DE
:1008C00020F4E050084320602878000706D520680F
:1008D000296920F4604040EAC100206000F038F847
:1008E0002168084AC1F30311515CC84006490860F9
:1008F00006480068FFF7F2FE0020C4E7003C024013
:1009000008380240D52300083000002028000020CD
:100910000448054900680968044AC1F38221515C12
:10092000C84070473000002008380240E523000826
:100930000448054900680968044AC1F34231515C22
:10094000C84070473000002008380240E523000806
:10095000224810B5006810F00C02214815D0411053
:10096000042A11D01D4C241F082A0FD00C2A0CD1A8
:100970002268236802F03F025B0221D52068C0F3A1
:100980008810A0FB010120E0084610BD2268236802
:1009900002F03F025B0205D52068C0F38810A0FB7F
:1009A000010104E02168C1F38811A1FB00010023CB
:1009B000FFF726FC2168C1F30141491C49000AE008
:1009C0002168C1F38811A1FB00010023FFF718FC87
:1009D0002168C1F30271B0FBF1F010BD083802408C
:1009E0000024F4002DE9F84F04007DD0DFF878B33F
:1009F0002078ABF10407C007A7F1040550D0DBF85D
:100A000000105846C1F3810101290FD00168C1F3DC
:100A10008101022902D13968490207D40068C0F374
:100A20008100032809D13868400206D52868800370
:100A300036D560680028D8D032E06068B0F5803FD5
:100A400010D0B0F5A02F286810D020F48030286096
:100A5000286820F4802028606068A0B1FFF716FEA7
:100A600006460CE0286840F48030F4E740F480202B
:100A70002860F7E7FFF70AFE801B642876D828680D
:100A80008003F7D50CE0FFF701FE064605E000BF46
:100A9000FFF7FCFD801B6428F0D828688003F7D49A
:100AA0002078DFF8C89280074FF0000A44D5DBF8C1
:100AB0000010584611F00C0F0FD00168C1F38101EE
:100AC000022902D13968490207D50068C0F38100C4
:100AD00003280AD13868400207D42868800715D552
:100AE000E068012800D111E03AE1E068B0B10120EE
:100AF000C9F80000FFF7CAFD064604E0FFF7C6FD8F
:100B0000801B0228BAD828688007F7D52868216991
:100B100020F0F80040EAC10028600DE0C9F800A00C
:100B2000FFF7B4FD064604E0FFF7B0FD801B022886
:100B30001CD828688007F7D42078000727D5DFF86D
:100B400028828B48616908F16C0881B1012101603C
:100B5000FFF79CFD064604E0FFF798FD801B022886
:100B600004D8D8F800008007F6D510E089E0C0F876
:100B700000A0FFF78BFD064605E000BFFFF786FDEE
:100B8000801B02287DD8D8F800008007F6D4207892
:100B9000400769D574484FF0000838300068C0003D
:100BA0000BD471483830016841F080510160006811
:100BB0004FF0010800F0805000906E4E3068C00584
:100BC00011D4306840F480703060FFF75FFD009012
:100BD00006E000BFFFF75AFD0099401A022850D8DE
:100BE0003068C005F6D5604EA068683601280FD081
:100BF0000528306810D020F001003060306820F007
:100C000004003060A068B8B1FFF740FD00900FE02D
:100C1000306840F00100F4E740F004003060F7E78E
:100C2000FFF734FD0099411A41F28830814264D8BF
:100C300030688007F4D50EE0FFF728FD009007E04C
:100C4000FFF724FD0099411A41F28830814254D8BF
:100C500030688007F4D4B8F1000F05D0424838302E
:100C6000016821F080510160A069A8B3DBF8001091
:100C7000C1F38101022947D00228C9F860A005D03C
:100C800000E03AE0FFF702FD044639E0FFF7FEFC22
:100C9000064604E0FFF7FAFC801B02282DD82868DE
:100CA0008001F7D4F4E907010843E168324A4908B2
:100CB00002EB0141A26841EA82110843217C40EA2B
:100CC0000160217D40EA017038600120C9F86000B0
:100CD000FFF7DCFC044606E044E000BFFFF7D6FC6B
:100CE000001B022809D828688001F7D53AE000BF28
:100CF000FFF7CCFC001B022802D90320BDE8F88FC7
:100D000028688001F4D42DE00128F7D03868E26922
:100D100000F48001914223D1226A00F03F01914208
:100D20001ED147F6C071626A0140B1EB821F17D134
:100D3000A26A4FF0FF3300F4403103EB5202B1EBF3
:100D4000024F0DD194F82C2000F07061B1EB026FCE
:100D500006D194F8301000F0E040B0EB017F01D0F4
:100D60000120CBE70020C9E70838024000004742D5
:100D7000800E4742007000400000FFFF10B5401E8B
:100D8000B0F1807F01D3012010BD4FF0E0246061FD
:100D90000F21601700F04EFA0020A06107202061AB
:100DA000002010BD70B5040004D094F83D0000256B
:100DB00010B106E0012070BD84F83C50204600F0E0
:100DC00023F8242084F83D002068C16821F40051F4
:100DD000C160204600F060F92068016921F490416B
:100DE00001612068416921F02A0141612068C168E0
:100DF00041F40051C1602564202084F83D0084F84E
:100E00003E00002070BD000010B586B004461421DD
:100E10006846FFF740FA13492068884220D11248FB
:100E20000021026842F400320260006800F40030E1
:100E300005900D481038026842F001020260006817
:100E400000F0010005900C2000900220CDE9010186
:100E5000032003900720049069460448FFF728FB0D
:100E600006B010BD0044004040380240000002407F
:100E70002DE9F84F044690F83E009A4616460D4676
:100E8000202853D1FDB1F6B194F83C0001284DD093
:100E9000012084F83C0000272764222084F83E00CB
:100EA0002763FFF7F3FBA6858146E685A0684FF42C
:100EB0008058404501D1206940B12E465FF00005C1
:100EC00084F83C7027E00120BDE8F88F0026F7E7A2
:100ED0004B46002220212046CDF800A000F062F908
:100EE00008B10320F0E726B1A06840451BD038B117
:100EF00008E020684068C0F3080025F8020B07E00E
:100F0000206980B12068406800F07F0006F8010B7E
:100F1000E08D401EE085E08D0028D9D1202084F8A6
:100F20003E000020D0E720684068EFE70220CBE7D2
:100F30002DE9F843044690F83D001F4616460D463D
:100F400020284CD1C5B1BEB194F83C00012846D050
:100F5000012084F83C004FF00008C4F840802120B4
:100F600084F83D00FFF792FBA6848146E684A068E2
:100F7000B0F5805F03D004E00120BDE8F88320696C
:100F800028B12E465FF0000584F83C800EE0002674
:100F9000FAE78021204600F005F9A0B9AEB116F8B5
:100FA000010B21684860E08C401EE084E08C4B46D9
:100FB0004FF0000200970028EBD14FF0400120468F
:100FC00000F0F0F830B10320D7E735F8020BC0F39A
:100FD0000800E6E7202084F83D000020CDE702204D
:100FE000CBE7FEE7FEE7FEE7704770477047FFF785
:100FF00053BB000010B594B034216846FFF74BF99D
:1010000014210DA8FFF747F91D48016841F08051F0
:101010000160006800F0805012901A48016821F4C5
:10102000404141F4804101600068022400F44040E6
:10103000129001200090000401908001CDE906404B
:10104000082008904FF4A870CDE909040B94684675
:101050000C94FFF7C7FC08B172B6FEE70F20CDE98C
:101060000D0480200F9040011090119002210DA8D6
:10107000FFF7B4FB002801D072B6FEE714B010BD34
:1010800040380240007000400248016841F470019D
:101090000160704788ED00E070B5044600680169A2
:1010A000E26821F44051114301612169A068E269BD
:1010B00008436169114308432168CA6849F20C6317
:1010C0009A430243CA6020684169A26921F44071D1
:1010D0001143416131492068884202D03049884239
:1010E00002D1FFF725FC01E0FFF712FCE2690023C3
:1010F000192164253226B2F5004F626828D0A0FB82
:101100000101930F9200FFF77BF80146B0FBF5F069
:101110006FF01802504301EB800006EB0010B0FBAB
:10112000F5F000F0F002B1FBF5F002EB0012B1FBBC
:10113000F5F06FF01803584301EB800006EB001048
:10114000B0FBF5F000F00F0021681044886070BD1E
:10115000A0FB010192185B41FFF752F80146B0FB7A
:10116000F5F00201B1FBF5F06FF01803584301EB05
:10117000800006EBC000B0FBF5F000F0F80002EBD9
:101180004002B1FBF5F0584301EB800006EBC000D4
:10119000B0FBF5F000F00700D6E7000000100140BA
:1011A000001401402DE9F041984617460E460446CA
:1011B000069D1DE0681C1BD02DB1FFF767FAA0EB60
:1011C0000800A84214D92068C16821F4D071C16018
:1011D0002068416921F001014161202084F83D002F
:1011E00084F83E00002084F83C000320BDE8F08134
:1011F0002068006836EA000004D00020B842D9D048
:101200000020F3E70120F9E7FEE700000FB4084BE8
:1012100010B504A902AA039800F030F8044602A908
:10122000002000F056FA204610BC5DF814FB0000C8
:10123000D31600080907090E002804DB00F1E0209E
:1012400080F80014704700F00F0000F1E02080F8F3
:10125000141D7047004870474000002002E008C895
:10126000121F08C1002AFAD170477047002001E020
:1012700001C1121F002AFBD1704700002DE9FF4F6A
:101280008DB00F460546002606E025280BD0DDE987
:101290000F1290476D1C761C28780028F5D111B0EC
:1012A0003046BDE8F08F0024A246A1460122E9495C
:1012B00000E0044315F8013F203B02FA03F0084226
:1012C000F7D128782A2810D06FF02F022878A0F1C3
:1012D0003001092914D80AEB8A0102EB410144F0DC
:1012E000020400EB010A6D1CF0E701CF5FEA000A7F
:1012F00003D544F40054CAF1000A44F002046D1C02
:1013000028782E2817D115F8010F44F004042A2854
:101310000ED06FF02F022878A0F1300109290AD8E9
:1013200009EB890102EB410100EB01096D1CF2E7B9
:1013300057F8049B6D1C28786C280FD006DC4C28CD
:1013400017D068280DD06A2814D104E0742810D072
:101350007A280FD10DE044F400140AE044F480141C
:1013600001E044F440146978814202D104F580140C
:101370006D1C6D1C28786E281ED00CDC632830D0C4
:1013800004DC00288BD0582811D19FE0642867D056
:1013900069280CD164E073282DD004DC6F2872D04A
:1013A000702804D194E075286ED078286DD0DDE9DE
:1013B0000F129047761C4BE1C4F30250022806D06E
:1013C000032809D0042801CF09D0066040E101CFED
:1013D000F117C0E900613BE101CF068038E10670FA
:1013E00036E117F8040B8DF8000000208DF801009D
:1013F000EB46012003E057F804BB4FF0FF306107D4
:101400004FF0000102D40DE008F101018846494582
:101410000FDA8045F8DB1BF808100029F4D108E04A
:1014200008F1010188468142FADB1BF80810002907
:10143000F6D1DDE90F23AAEB08008146214600F032
:1014400031F9304400EB080604E0DDE90F121BF827
:10145000010B9047B8F10108F7D221464846F2E067
:101460000A21C4F302524FF0000B0891022A04D063
:1014700001CFC117032A09D00AE0FF1D27F0070793
:10148000F7E8020108E02CE01EE01FE000B2C117FF
:10149000042A01D140B2C117021E71F1000206DA1E
:1014A0000023D0EB030063EB01012D2202E02205B3
:1014B00004D52B228DF82420012203E0E20701D07D
:1014C0002022F7E7904653E00A210BE0102109E0C3
:1014D00010214FF0000B44F004044FF0080908916C
:1014E00003E008214FF0000B0891C4F30252022AD6
:1014F00004D001CF0021032A06D006E0FF1D27F00B
:101500000707F7E8020103E080B2042A00D1C0B265
:101510004FF0000822072BD52A78702A07D0DDF873
:1015200020C08CF0100C5CEA0B0C05D00EE04022C1
:101530008DF82420012208E050EA010306D0302370
:101540008DF824308DF8252002229046089B83F0E8
:10155000080353EA0B030BD150EA010201D16207E1
:1015600006D530228DF824204FF00108A9F1010999
:101570002A78582A04D038A20B9208AA0A920BE0C3
:101580003AA2F9E75B46089AFEF73AFE0B9B9B5C92
:101590000A9A521E0A92137050EA0102F2D10A9876
:1015A000ADEB000000F1200B600702D524F480347D
:1015B00001E04FF00109D94502DDA9EB0B0000E085
:1015C000002000EB0B0141440890AAEB010AE00364
:1015D00006D4DDE90F232146504600F063F80644A7
:1015E0004FF0000908E009A911F80900DDE90F1220
:1015F000904709F10109761CC145F4DBE0030CD5E5
:10160000DDE90F232146504600F04CF8064404E083
:10161000DDE90F1230209047761C0899481E08908B
:101620000029F5DC08E00A980A990078491C0A911B
:10163000DDE90F129047761CBBF10001ABF1010B05
:10164000F1DC21465046DDE90F2300F019F806448D
:101650006D1C21E60928010030313233343536372C
:1016600038396162636465660000000030313233EE
:10167000343536373839414243444546000000008E
:101680002DE9F041044600251E461746880404D47F
:1016900005E039462020B0476D1C641EF9D5284668
:1016A000BDE8F0812DE9F041044600251E46904634
:1016B000C80301D5302700E02027880404D505E0C1
:1016C00041463846B0476D1C641EF9D52846BDE832
:1016D000F0810A68531C0B601070704730B5B3B0CE
:1016E0000C460546C8216846FEF7D5FD23462A4626
:1016F00007496846FFF78AFD82B2642369460548B8
:10170000FFF716FC4FF4FA70FEF7C0FE33B030BDA1
:1017100060250008D401002010B5002103E05C40E2
:1017200044545454491C545C002CF8D1002101E06D
:101730005354491C435C002BFAD110BD2DE9F041F4
:1017400090460E461046FEF7B1FD074600252C4692
:10175000701C00F0E1FC2CE003DA18F805306D1C79
:1017600000E00023BD4203DA18F805206D1C00E0FC
:101770000022BD4203DA18F805106D1C00E00021BC
:101780001B0403EB022211441C4AC1F38543D35CC2
:101790000355C1F30533641CD35C0355C1F38513B2
:1017A000641CD35C035501F03F01641C515C01557E
:1017B000641CBD42D0DB4FF000014FF03D024FF002
:1017C00003030F4C07E000BFA6EB0105054401F140
:1017D000010105F8012C96FBF3F503FB156554F8A0
:1017E00025508D42F0DC0021815502E008F80120EF
:1017F000491C425C002AF9D1BDE8F081942300081D
:1018000018000020F0B595B0342104A8FEF743FD80
:101810000020119012900646139038A14248FFF71D
:10182000F5FC424D404982B24FF47A74A8602346D9
:1018300001F5C870FFF77CFB670005E03B460A2214
:1018400011A93B48FFF714FB9DF844000028F5D090
:1018500011A8FEF740FD0246019036A13248FFF77D
:10186000D5FC82B2A86023462F493148FFF760FBC0
:101870000198FEF701FDFEF7F5FC40F6FF7190FBC5
:10188000F1F201FB120401A86C6000F047FA204657
:1018900000F04BFA01A800F041FA0246204600F0A1
:1018A00044FA686021461046FFF718FF01986968FE
:1018B000471A884205DD204600F037FA394600F025
:1018C000A1F801986968884205DA204600F02DFAEF
:1018D000394600F025FD01986968884209D122A1A6
:1018E00004A8FFF793FC82B2642304A91048FFF711
:1018F0001FFB761C012ED9DB15B0F0BD0A566575AD
:10190000696C6C657A20656E7472657A206C6120F2
:1019100074656D706572617475726520736F75683A
:10192000616974650A0D0000440000200000002079
:10193000D40100206C612074656D706572617475EE
:1019400072652071756520766F7573206176657A92
:101950002072656E7472652065737420646520253D
:1019600064430A0D000000004C6520666F7572200C
:101970006573742061206C6120626F6E6E652074E7
:10198000656D70657261747572650A0D0000000006
:101990002DE9F041164F16460546002415A11848BA
:1019A0003A69FFF733FC164982B2F8604FF47A7354
:1019B00001F1C800FFF7BCFA5F233A690BE0203859
:1019C000104490FBF3F103FB1101002900DA5F31B1
:1019D00020312955641C305D0028F0D1285501E0E4
:1019E0003154401C295C0029FAD12846BDE8F08119
:1019F00000000020636C6566203D2025640A0D0010
:101A00000C0100202DE9F0418EB00D460446342132
:101A10006846FEF740FC4FF47A774FF4FA780D4EA3
:101A200013E03846641C6D1EFEF730FD22460AA105
:101A30006846FFF7EBFB82B2642369460D48FFF767
:101A400077FA4046FEF722FD7460002DE9DC0EB007
:101A5000BDE8F081000000206C612074656D706548
:101A600072617475726520657374206465202564E5
:101A70000A0D0000D40100202DE9F04FBDB00E4644
:101A80000746542111A8FEF706FC542126A8FEF7AC
:101A900002FC00203B90202109A8FEF7FCFB20213E
:101AA00001A8FEF7F8FB4FF0000941F288380DF16C
:101AB000240A0DF1040B704C2FE043461E2209A9A5
:101AC0006E48FFF7D5F900BF9DF824000028F4D038
:101AD000002517E005EB8510811909A8FEF7EDFB3D
:101AE000002829D0BD420CD1644865A1C838FFF751
:101AF0008DFB624982B2E0606423C8395F48FFF71A
:101B000017FA6D1CBD42E5DB0020014652465B46DC
:101B100011541954401C1E28FADB58485FA1C838DC
:101B2000FFF774FB554982B2E0604FF47A73C8390D
:101B30005248FFF7FDF9C7E7504809AA61A1C83824
:101B4000FFF764FB4D4982B2E0604FF47A73C83905
:101B50004A48FFF7EDF93C9554E02B461E2201A9B7
:101B60004648FFF785F900BF9DF804000028F4D02F
:101B700001A8FEF79BFB0321801CB0FBF1F0810064
:101B8000334601AA3B98FFF7D9FD3B9800F0D4F803
:101B90003C9800EB8010851995F83C00632805D12E
:101BA000334601AA512111A8FFF7F2FE95F83C0037
:101BB000782806D10096237D01AA512126A8FFF797
:101BC000ABFD05F11E0101A8FEF777FB48B32B48DA
:101BD00041A1C838FFF71AFB284982B2E0606423AC
:101BE000C8392648FFF7A4F9002009F10109054684
:101BF0000AF800500BF80050401C1E28F8DBB9F121
:101C0000030F1ED01D4836A1C838FFF7FFFA1B4945
:101C100082B2E0606423C8391848FFF789F9454665
:101C2000A2E73146384600F031FB0020014653461A
:101C30005A4619541154401C1E28FADB3DB0BDE829
:101C4000F08F0E482DA1C838FFF7E0FA0B4982B299
:101C5000E0606423C8390948FFF76AF9002051465B
:101C60005A460D541554401C1E28FADB314638469E
:101C700000F088FAE2E7000000000020D401002014
:101C80004964656E74696669616E7420696E747208
:101C90006F757661626C65202D3E20005665756912
:101CA0006C6C657A20656E7472657220766F7472E2
:101CB00065206964656E74696669616E74203A2096
:101CC0000A0D00000A0D426F6E6A6F75722025734F
:101CD00020210A0D000000006661757820200000B8
:101CE000456E7472657A20766F747265206D6F74BC
:101CF0002064652070617373650A0D0074726F70E3
:101D0000206427657272657572207265746F7572D2
:101D1000206175206D656E756E0D00000068C8212C
:101D2000C0EB003090FBF1F07047C821484340F60B
:101D3000FF7190FBF1F0704710B5002821D0114BD6
:101D40000022001F196803E0814203D80A4649684F
:101D50000029F9D152B11368841A9C4204D1006859
:101D600018441060104602E0506000E0186039B17D
:101D700002680B1A934203D10B681A440260496847
:101D8000416010BD380000202DE9F04FABB00F4688
:101D90000646542101A8FEF77EFA542116A8FEF744
:101DA0007AFA4FF0000B7BA18348FFF72FFADFF898
:101DB0000C82814982B2C8F80C00642301F1C8008A
:101DC000FFF7B6F806EB861441F28839E51906E00C
:101DD000794829464B461E22C830FFF749F8385D3E
:101DE0000028F5D076A17448FFF710FA724982B244
:101DF0004FF47A7AC8F80C00534601F1C800FFF797
:101E000097F806EB8610C4191E3406E06A4821468E
:101E10004B461E22C830FFF72BF8A87F0028F5D0CC
:101E200023462A466FA16448FFF7F0F9624982B25F
:101E3000C8F80C00642301F1C800FFF779F8FEF739
:101E400011FAA97F06FB0010FEF716FAFEF70AFA50
:101E50005F2190FBF1F201FB1201C8F81010FEF7B0
:101E600001FAFF2190FBF1F201FB120266A1524838
:101E7000C8F81420FFF7CAF94F4982B2C8F80C001D
:101E8000642301F1C800FFF753F82046FEF70EFA6D
:101E90000321801CB0FBF1F0810022463B465846EE
:101EA000FFF74CFC5846FFF747FF22465BA142482C
:101EB000FFF7ACF9404982B2C8F80C00642301F185
:101EC000C800FFF735F85DA13B48FFF79FF93A4995
:101ED00082B2C8F80C00642301F1C800FFF728F8AB
:101EE00005F13C094FF4FA7B06E0334849465B466E
:101EF0000522C830FEF7BCFF95F83C000028F4D05E
:101F0000C0B2632813D122463B46512101A8FFF7F6
:101F10003FFD224658A12848FFF778F9264982B2AA
:101F2000C8F80C00642301F1C800FFF701F895F828
:101F30003C00782829D158A11F48FFF767F91E49AE
:101F400082B2C8F80C00D146534601F1C800FEF732
:101F5000EFFF009798F814302246512116A8FFF79A
:101F6000DBFB002447460CE04DA11348FFF74EF978
:101F7000114982B2F8604B4601F1C800FEF7D8FF64
:101F8000641C2819827F002AEED12BB0701CBDE89A
:101F9000F08F0000566575696C6C657A20656E740B
:101FA00072657220756E206964656E746966696118
:101FB0006E74203A200A0D000C0100200000002061
:101FC000566575696C6C657A20656E7472657220F1
:101FD0006D6F74206465207061737365203A200A08
:101FE0000D0000000A0A6964656E74696669616EB5
:101FF00074203A2025732070617373776F726420A8
:102000003A2025730A0A0D000A636C656620786F12
:10201000723A2025640A0A0D000000000A706173FC
:1020200073776F726420656E636F6465206261739D
:102030006536343A2025730A0A0D000043686F693B
:1020400073697373657A20766F7472652074797022
:1020500065206427656E636F64616765202863652A
:1020600073617220276327206F7520584F522027F5
:102070007827203A200A0D000A0D70617373776F7C
:10208000726420656E636F64652061736369693A89
:102090002025730A0A0D00000A0D706B3A2000001B
:1020A0002578200000B5ADF5257DFEF7FDFAFEF799
:1020B000A1FF16480021026842F080020260026817
:1020C00002F08002A392026842F0010202600068FE
:1020D0000F4A00F00100A3900E4802604FF4165220
:1020E000C0E901210C22C160C0E904128161C16113
:1020F000FEF758FE08B172B6FEE7694600F042F8F6
:10210000411CFAD10DF5257D002000BD303802407C
:1021100000440040D4010020F0B50B30154D20F0F4
:1021200007010024144A0FE003688B420BD38B4253
:1021300005D95E1A43184768C3E9006700E04368A1
:10214000136002C004E0021D10680028ECD1204694
:10215000002802D1286808B10020F0BD064A0748CF
:102160001060074A121A22F00702C0E90024012079
:102170002860D7E73C000020380000201C02002027
:1021800018040020FEB50D4600210091019108467B
:102190002B4A029101E01154401C135C002BFAD130
:1021A00028492748FFF732F8274C254982B2E060DA
:1021B0004FF47A7301F1C800FEF7BAFE266806E014
:1021C0001F4864230A226946C830FEF751FE9DF875
:1021D00000000028F4D06846FEF77DF828B10128F9
:1021E00012D0022825D019A117E01CA11448FFF72E
:1021F0000DF8134982B2E060642301F1C800FEF7D4
:1022000097FE4FF0FF30FEBD0A2E05DA2946304614
:10221000FFF7BAFD206010E014A10948FEF7F6FFB1
:10222000074982B2E060642301F1C800FEF780FE36
:1022300003E029463046FFF71FFC3046FEBD000094
:102240000C01002074240008000000206465666111
:10225000756C74206D656E75320A0D0041752072C3
:1022600065766F697220210A0D0000004465736F66
:102270006C6520696C207920612074726F70206415
:1022800027696E7363726974730A0D00FEB50646A2
:1022900000200D460090019002901A491A48FEF75E
:1022A000B5FF1A4C184982B2E0604FF47A7301F11D
:1022B000C800FEF73DFE06E0134864230A22694683
:1022C000C830FEF7D5FD9DF800000028F4D0684620
:1022D000FEF701F870B1012811D00DA10A48FEF7F0
:1022E00095FF094982B2E060642301F1C800FEF75E
:1022F0001FFEFEBD29463046FFF744FFFEBDFFF737
:1023000081FAFEBDE82400080C0100200000002036
:1023100064656661756C74206D656E75320A0D00BA
:102320002DE9F0418EB00D46044634216846FDF794
:10233000B2FF4FF47A774FF4FA780D4E13E0384637
:10234000641E6D1CFEF7A2F822460AA16846FEF73D
:102350005DFF82B2642369460D48FEF7E9FD404601
:10236000FEF794F87460002DE9DB0EB0BDE8F08153
:10237000000000206C612074656D70657261747579
:102380007265206573742064652025640A0D000061
:10239000D40100204142434445464748494A4B4CFA
:1023A0004D4E4F505152535455565758595A6162D9
:1023B000636465666768696A6B6C6D6E6F70717275
:1023C000737475767778797A3031323334353637BD
:1023D00038392B2F0000000000000000000102032C
:1023E0000406070809000000000102030400404041
:1023F00040404040404040414141414140404040D8
:102400004040404040404040404040404040050245
:102410000202020202020202020202020202202060
:10242000202020202020202002020202020202900E
:10243000909090909010101010101010101010101C
:102440001010101010101010100202020202028868
:10245000888888888808080808080808080808087C
:1024600008080808080808080802020202400000DC
:10247000EE2300080A0D4269656E76656E7565206B
:102480002120566575696C6C657A2073656C65638F
:1024900074696F6E657220756E6520646573206F58
:1024A0007074696F6E203A0A0A0D302E20517569DA
:1024B00074746572206C652070726F6772616D6DE7
:1024C000650A0D312E205327696E73637269726538
:1024D0000A0D322E20536520636F6E6E656374653E
:1024E000720A0A0A0D0000000A0A0D436F6E6E653B
:1024F00078696F6E20726575737369652C207665D7
:1025000075696C6C657A2073656C656374696F6E50
:10251000657220756E6520646573206F7074696FD5
:102520006E203A0A0A0D302E206465636F6E6E6568
:1025300078696F6E0A0D312E205265676C657220C6
:102540006C612074656D706572617475726520646C
:102550006520766F74726520666F75720A0D0000D3
:102560006C612076616C6575726520616E616C6F5F
:102570006769717565206465206C277574696C697D
:1025800073617465757220657374203A25642065E3
:1025900074206C612076616C6575726520647520AD
:1025A00063617074657572206573743A2025640ADE
:1025B0000D200000D4250008000000204400000089
:1025C0005C1200081826000844000020D407000010
:1025D0006C12000800000000000000000000000075
:1025E00000000000000000000000000000000000EB
:1025F00002000000010000000100000010000000C7
:10260000000000000024F4000000000000000000B2
:082610000000000000000000C2
:04000005080001C529
:00000001FF
