:020000040800F2
:1000000010080020DD010008131000080F10000880
:1000100011100008B30400083512000800000000A9
:10002000000000000000000000000000191000089F
:10003000B504000800000000151000081B1000089F
:10004000F7010008F7010008F7010008F7010008B0
:10005000F701000817100008F7010008F701000871
:10006000F7010008F7010008F7010008F701000890
:10007000F7010008F7010008F7010008F701000880
:10008000F7010008F7010008F7010008F701000870
:10009000F7010008F7010008F7010008F701000860
:1000A000F7010008F7010008F7010008F701000850
:1000B000F7010008F7010008F7010008F701000840
:1000C000F7010008F7010008F7010008F701000830
:1000D000F7010008F7010008F7010008F701000820
:1000E000F7010008F7010008F7010008F701000810
:1000F000F7010008F7010008F7010008F701000800
:10010000F7010008F7010008F7010008F7010008EF
:10011000F7010008F7010008F7010008F7010008DF
:10012000F7010008F7010008F7010008F7010008CF
:10013000F70100080000000000000000F7010008BF
:10014000F7010008F7010008F7010008F7010008AF
:10015000F7010008F7010008F7010008F70100089F
:10016000F7010008F7010008F7010008F70100088F
:10017000F7010008F7010008F7010008000000007F
:1001800000000000F701000800000000000000006F
:10019000F70100080000000000000000F70100085F
:1001A000000000000000000000000000F70100084F
:1001B000F7010008F7010008F7010008F70100083F
:1001C000F7010008DFF810D000F000F90048004700
:1001D000411D0008AFF3008010080020064880474A
:1001E00006480047FEE7FEE7FEE7FEE7FEE7FEE71C
:1001F000FEE7FEE7FEE7FEE7B5100008C5010008D0
:100200002DE9F05F0546002092469B46884606464B
:10021000814640241BE0284641464746224600F0DE
:100220008CF853465A46C01A914110D311461846CD
:10023000224600F073F82D1A67EB01084F4622465C
:100240000120002100F06AF817EB00094E41201E42
:10025000A4F10104DFDC484631462A464346BDE8A6
:10026000F09F00000649074A0868504343F23902EC
:10027000104408604008704701490860704700005A
:100280002C0000206D4EC641D2B201E000F8012BD7
:10029000491EFBD270470022F6E710B513460A4606
:1002A00004461946FFF7F0FF204610BD421C10F827
:1002B000011B0029FBD1801A704710B5002200E015
:1002C000521C835C8C5CA34201D1002BF8D1D8B2C4
:1002D000E1B2401A10BD70B5064600F0D1FF0468C7
:1002E00005460A220021304600F037F82C6070BD28
:1002F00030B50B46014600202022012409E021FAF6
:1003000002F59D4205D303FA02F5491B04FA02F5F2
:100310002844151EA2F10102F1DC30BD202A04DBC5
:10032000203A00FA02F1002070479140C2F1200308
:1003300020FA03F3194390407047202A04DB203A47
:1003400021FA02F00021704721FA02F3D040C2F1F5
:10035000200291400843194670472DE9F047914625
:100360000F4680460446002614F8015B2DB100F0CC
:100370003FF80068405DC007F6D12B2D02D02D2D2F
:1003800018D0641E4A463946204600F035F827B199
:100390003968A14201D1C7F8008071054FF002040D
:1003A0000BD54042002803DD00F06AFF0460A0077F
:1003B000BDE8F08746F48066E4E70028F8DA00F04C
:1003C0005FFF04606FF00040F2E70000064C074D4D
:1003D00006E0E06840F0010394E807009847103415
:1003E000AC42F6D3FFF7F2FE50220008702200085C
:1003F000004870470C2100082DE9F05F8246007824
:10040000002715468B460AF10104B946302801D071
:100410009DB113E014F8010B0127782803D0582868
:1004200001D045B10AE00DB1102D07D100271025EC
:1004300014F8010B02E0082500E00A250026B0466A
:100440000EE005FB080005FB06F1012701EB104655
:100450001FFA80F8B6F5803F00D3B94614F8010BB7
:10046000294600F018F80028EBDABBF1000F05D0A0
:100470000FB1641E00E05446CBF80040B9F1000F04
:1004800006D000F0FDFE02210160C81EBDE8F09F0D
:1004900048EA0640FAE73A2800D2303820F0200235
:1004A000412A01D3A2F13700884201D34FF0FF3037
:1004B0007047FEE77047000070B5044600F0FCF896
:1004C0000546601C02D004480078044400F0F4F8AB
:1004D000401BA042FAD370BD1C0000202DE9F84F4C
:1004E000DFF8ACA1002201240AF1040B03254FF030
:1004F0000F090BF1040E00BF0B6804FA02F633403B
:10050000B34272D10F7907F00307012F01D0022FF8
:1005100016D187684FEA420805FA08FC27EA0C075B
:10052000D1F80CC00CFA08FC4CEA070CC0F808C063
:100530004768B7430E79C6F3001696403E434660BF
:100540000E79F643B6070AD0C6684FEA420C05FAA0
:100550000CF7BE438F6807FA0CF73743C7600E7974
:1005600006F00306022E10D1D60800EB8608D8F854
:10057000206057074FEAD76C09FA0CF7BE430F69A2
:1005800007FA0CF73743C8F8207006684FEA420CA8
:1005900005FA0CF7BE430F7907F0030707FA0CF7CB
:1005A000374307604E68F6006BD53A4E376847F41C
:1005B00080473760366822F0030706F480460096CD
:1005C000354E07EB060CDCF8086897074FEA1778FA
:1005D00009FA08F7BE43314FB84201D100271FE0A6
:1005E0002F4FB84202D101271AE04AE02D4FB842FE
:1005F00001D1022714E02C4FB84201D103270FE0AC
:100600002A4FB84201D104270AE0294FB84201D14C
:10061000052705E0274FB84201D1062700E007274C
:1006200007FA08F73743CCF80878DAF8006057463D
:10063000D1F804C09E435FEACC3C00D51E433E6027
:10064000DBF800605F46D1F804C09E435FEA8C3C53
:1006500000D51E433E60DEF800607746D1F804C046
:100660009E435FEACC2C00D51E433E60084F0C37FA
:100670003E68D1F804C09E435FEA8C2C00D51E432F
:100680003E60521C102AFFF437AFBDE8F88F00001F
:10069000003C01404438024000300140000002406C
:1006A0000004024000080240000C0240001002401A
:1006B00000140240001802400148806870470000A2
:1006C0001C00002002488168027811448160704754
:1006D0001C0000200B4810B5016841F40071016056
:1006E000016841F480610160016841F4807101603A
:1006F000032000F077F8002000F006F800F024F85E
:10070000002010BD003C024070B50D4D04464FF472
:100710007A712878B1FBF0F00A490968B1FBF0F072
:1007200000F042FB48B9102C07D200222146501E8F
:1007300000F038F800206C6070BD012070BD000032
:100740001C000020280000200E4808B5016841F474
:1007500080410160006800F4804000900948001F5B
:10076000016841F0805101600068002200F0805073
:1007700000901146052000F015F8BDE8084005205E
:1007800000F002B844380240002809DB00F01F02E4
:10079000012191404009800000F1E020C0F80011E3
:1007A00070470000F0B40E4B1B680C46C3F30223E5
:1007B000C3F10705042D00D90425191D072901D20D
:1007C000002300E0DB1E012606FA05F1491E214048
:1007D00099409E40761E16403143F0BC00F040BD6B
:1007E0000CED00E0064900F0070208684FF6FF0331
:1007F000184040EA0220034A104308607047000096
:100800000CED00E00000FA052DE9F0470E4605006A
:1008100065D0DFF81481D8F80000F7B200F00F00BF
:10082000B04207D288F80070D8F8000000F00F003E
:10083000B04254D128683D4C810712D5400703D5FA
:10084000206840F4E05020602878000703D5206835
:1008500040F4604020602068A96820F0F000084360
:1008600020602878C0072DD03049686808390128F1
:1008700012D0022813D0032811D009688907002953
:100880002DDA216821F0030101432160FFF714FFF5
:10089000814641F2883A0EE009688903EFE709686A
:1008A0008901ECE7FFF708FFA0EB0901514502D9E8
:1008B0000320BDE8F0872068696800F00C00B0EB09
:1008C000810FEFD1D8F80010404601F00F01B1427E
:1008D00007D90770006800F00F00B04201D0012076
:1008E000E7E72878400705D52068E96820F4E0505C
:1008F000084320602878000706D52068296920F47D
:10090000604040EAC100206000F038F82168084AE1
:10091000C1F30311515CC8400649086006480068ED
:10092000FFF7F2FE0020C4E7003C02400838024016
:1009300071200008280000202000002004480549FC
:1009400000680968044AC1F38221515CC8407047BD
:10095000280000200838024081200008044805498A
:1009600000680968044AC1F34231515CC8407047CD
:10097000280000200838024081200008224810B5D5
:10098000006810F00C02214815D04110042A11D043
:100990001D4C241F082A0FD00C2A0CD12268236872
:1009A00002F03F025B0221D52068C0F38810A0FB53
:1009B000010120E0084610BD2268236802F03F02D2
:1009C0005B0205D52068C0F38810A0FB010104E09C
:1009D0002168C1F38811A1FB00010023FFF710FC7F
:1009E0002168C1F30141491C49000AE02168C1F3B3
:1009F0008811A1FB00010023FFF702FC2168C1F36D
:100A00000271B0FBF1F010BD083802400024F40080
:100A10002DE9F84F04007DD0DFF878B32078ABF1F2
:100A20000407C007A7F1040550D0DBF800105846B2
:100A3000C1F3810101290FD00168C1F381010229AD
:100A400002D13968490207D40068C0F38100032845
:100A500009D13868400206D52868800336D5606819
:100A60000028D8D032E06068B0F5803F10D0B0F5F3
:100A7000A02F286810D020F480302860286820F447
:100A8000802028606068A0B1FFF716FE06460CE0E3
:100A9000286840F48030F4E740F480202860F7E7CD
:100AA000FFF70AFE801B642876D828688003F7D5F4
:100AB0000CE0FFF701FE064605E000BFFFF7FCFD76
:100AC000801B6428F0D828688003F7D42078DFF8EA
:100AD000C89280074FF0000A44D5DBF80010584652
:100AE00011F00C0F0FD00168C1F38101022902D16E
:100AF0003968490207D50068C0F3810003280AD18C
:100B00003868400207D42868800715D5E0680128B6
:100B100000D111E03AE1E068B0B10120C9F800006D
:100B2000FFF7CAFD064604E0FFF7C6FD801B02285A
:100B3000BAD828688007F7D52868216920F0F8001E
:100B400040EAC10028600DE0C9F800A0FFF7B4FD3D
:100B5000064604E0FFF7B0FD801B02281CD8286879
:100B60008007F7D42078000727D5DFF828828B4844
:100B7000616908F16C0881B101210160FFF79CFDFA
:100B8000064604E0FFF798FD801B022804D8D8F839
:100B900000008007F6D510E089E0C0F800A0FFF75C
:100BA0008BFD064605E000BFFFF786FD801B02288F
:100BB0007DD8D8F800008007F6D42078400769D5A2
:100BC00074484FF0000838300068C0000BD47148FA
:100BD0003830016841F08051016000684FF0010831
:100BE00000F0805000906E4E3068C00511D430681F
:100BF00040F480703060FFF75FFD009006E000BFBA
:100C0000FFF75AFD0099401A022850D83068C005F5
:100C1000F6D5604EA068683601280FD005283068E8
:100C200010D020F001003060306820F00400306007
:100C3000A068B8B1FFF740FD00900FE0306840F0C9
:100C40000100F4E740F004003060F7E7FFF734FDFF
:100C50000099411A41F28830814264D83068800797
:100C6000F4D50EE0FFF728FD009007E0FFF724FD24
:100C70000099411A41F28830814254D83068800787
:100C8000F4D4B8F1000F05D042483830016821F0A3
:100C900080510160A069A8B3DBF80010C1F38101A5
:100CA000022947D00228C9F860A005D000E03AE048
:100CB000FFF702FD044639E0FFF7FEFC064604E0BC
:100CC000FFF7FAFC801B02282DD828688001F7D492
:100CD000F4E907010843E168324A490802EB01419F
:100CE000A26841EA82110843217C40EA0160217D2B
:100CF00040EA017038600120C9F86000FFF7DCFCB1
:100D0000044606E044E000BFFFF7D6FC001B0228C3
:100D100009D828688001F7D53AE000BFFFF7CCFC7E
:100D2000001B022802D90320BDE8F88F2868800143
:100D3000F4D42DE00128F7D03868E26900F480018E
:100D4000914223D1226A00F03F0191421ED147F621
:100D5000C071626A0140B1EB821F17D1A26A4FF0E5
:100D6000FF3300F4403103EB5202B1EB024F0DD1DF
:100D700094F82C2000F07061B1EB026F06D194F86A
:100D8000301000F0E040B0EB017F01D00120CBE754
:100D90000020C9E70838024000004742800E474261
:100DA000007000400000FFFF10B5401EB0F1807FD2
:100DB00001D3012010BD4FF0E02460610F216017C6
:100DC00000F04EFA0020A06107202061002010BD35
:100DD00070B5040004D094F83D00002510B106E081
:100DE000012070BD84F83C50204600F023F82420F8
:100DF00084F83D002068C16821F40051C16020469C
:100E000000F060F92068016921F4904101612068D7
:100E1000416921F02A0141612068C16841F4005113
:100E2000C1602564202084F83D0084F83E00002045
:100E300070BD000010B586B0044614216846FFF767
:100E40002AFA13492068884220D1124800210268FA
:100E500042F400320260006800F4003005900D4852
:100E60001038026842F001020260006800F00100E0
:100E700005900C2000900220CDE901010320039091
:100E80000720049069460448FFF728FB06B010BD10
:100E90000044004040380240000002402DE9F84F75
:100EA000044690F83E009A4616460D46202853D137
:100EB000FDB1F6B194F83C0001284DD0012084F832
:100EC0003C0000272764222084F83E002763FFF7B8
:100ED000F3FBA6858146E685A0684FF4805840451F
:100EE00001D1206940B12E465FF0000584F83C70C6
:100EF00027E00120BDE8F88F0026F7E74B460022E7
:100F000020212046CDF800A000F062F908B10320AE
:100F1000F0E726B1A06840451BD038B108E0206852
:100F20004068C0F3080025F8020B07E0206980B193
:100F30002068406800F07F0006F8010BE08D401E3D
:100F4000E085E08D0028D9D1202084F83E000020E3
:100F5000D0E720684068EFE70220CBE72DE9F843AF
:100F6000044690F83D001F4616460D4620284CD1F9
:100F7000C5B1BEB194F83C00012846D0012084F8E8
:100F80003C004FF00008C4F84080212084F83D0068
:100F9000FFF792FBA6848146E684A068B0F5805FE7
:100FA00003D004E00120BDE8F883206928B12E4673
:100FB0005FF0000584F83C800EE00026FAE780210F
:100FC000204600F005F9A0B9AEB116F8010B216872
:100FD0004860E08C401EE084E08C4B464FF00002FD
:100FE00000970028EBD14FF04001204600F0F0F8C8
:100FF00030B10320D7E735F8020BC0F30800E6E76D
:10100000202084F83D000020CDE70220CBE7FEE75A
:10101000FEE7FEE7704770477047FFF753BB0000DD
:1010200010B594B034216846FFF735F914210DA8A6
:10103000FFF731F91D48016841F0805101600068F7
:1010400000F0805012901A48016821F4404141F4A8
:10105000804101600068022400F4404012900120A9
:101060000090000401908001CDE90640082008901E
:101070004FF4A870CDE909040B9468460C94FFF76F
:10108000C7FC08B172B6FEE70F20CDE90D04802041
:101090000F9040011090119002210DA8FFF7B4FBB2
:1010A000002801D072B6FEE714B010BD40380240EF
:1010B000007000400248016841F47001016070470F
:1010C00088ED00E070B5044600680169E26821F42B
:1010D0004051114301612169A068E26908436169D7
:1010E000114308432168CA6849F20C639A430243DA
:1010F000CA6020684169A26921F4407111434161CD
:1011000031492068884202D03049884202D1FFF735
:1011100025FC01E0FFF712FCE26900231921642598
:101120003226B2F5004F626828D0A0FB0101930F70
:101130009200FFF765F80146B0FBF5F06FF018027A
:10114000504301EB800006EB0010B0FBF5F000F01F
:10115000F002B1FBF5F002EB0012B1FBF5F06FF01D
:101160001803584301EB800006EB0010B0FBF5F0CC
:1011700000F00F0021681044886070BDA0FB0101E1
:1011800092185B41FFF73CF80146B0FBF5F0020115
:10119000B1FBF5F06FF01803584301EB800006EB4C
:1011A000C000B0FBF5F000F0F80002EB4002B1FB2C
:1011B000F5F0584301EB800006EBC000B0FBF5F002
:1011C00000F00700D6E700000010014000140140C5
:1011D0002DE9F041984617460E460446069D1DE04F
:1011E000681C1BD02DB1FFF767FAA0EB0800A842DE
:1011F00014D92068C16821F4D071C16020684169A8
:1012000021F001014161202084F83D0084F83E0076
:10121000002084F83C000320BDE8F08120680068CD
:1012200036EA000004D00020B842D9D00020F3E70D
:101230000120F9E7FEE700000FB4084B10B504A940
:1012400002AA039800F030F8044602A9002000F03A
:10125000CCF9204610BC5DF814FB0000EB1500082B
:101260000907090E002804DB00F1E02080F80014D3
:10127000704700F00F0000F1E02080F8141D704767
:10128000004870473800002002E008C8121F08C15B
:10129000002AFAD170477047002001E001C1121FF7
:1012A000002AFBD1704700002DE9FF4F8BB0884624
:1012B0000546002606E025280BD0DDE90D129047F3
:1012C0006D1C761C28780028F5D10FB03046BDE89B
:1012D000F08F0024A146A2460122AE4900E004435B
:1012E00015F8013F203B02FA03F00842F7D12878B5
:1012F0002A2810D06FF02F022878A0F13001092998
:1013000015D809EB890102EB410144F0020400EB1E
:1013100001096D1CF0E758F8041B5FEA010903D5C9
:1013200044F40054C9F1000944F002046D1C28780B
:101330002E2817D115F8010F44F004042A280ED0E6
:101340006FF02F022878A0F1300109290AD80AEBA2
:101350008A0102EB410100EB010A6D1CF2E758F82B
:1013600004AB6D1C28786C280FD006DC4C2817D0F5
:1013700068280DD06A2814D104E0742810D07A2887
:101380000FD10DE044F400140AE044F4801401E0AD
:1013900044F440146978814202D104F580146D1C34
:1013A0006D1C2878692865D006DC00288DD063285C
:1013B00027D0642806D15DE06E2808D073282AD093
:1013C000752877D0DDE90D129047761CE0E0C4F374
:1013D0000250022809D003280DD0D8F800100428A4
:1013E0000DD00E6008F10408D2E0D8F80010F21712
:1013F000C1E90062F6E7D8F800100E80F2E70E703F
:10140000F0E718F8041B8DF8001000208DF801009B
:10141000EB46012003E058F804BB4FF0FF306107B2
:101420004FF0000701D40AE07F1C57450DDA8742D0
:10143000FADB1BF807100029F6D106E07F1C874273
:10144000FCDB1BF807100029F8D1DDE90D23A9EB1F
:1014500007008146214600F0B1F83044C61904E087
:10146000DDE90D121BF8010B90477F1EF8D22146D3
:10147000484688E058F8040BC4F302514FF00A0BB9
:10148000032900D100B2042900D140B2002802DAB9
:1014900040422D2102E0210505D52B218DF8241095
:1014A000012104E006E0E10710D02021F6E708AFB3
:1014B000089113E058F8040BC4F302514FF00A0BE3
:1014C000032900D180B2042900D1C0B20021EEE787
:1014D0005946FEF70DFF303107F8011D0028F7D1FE
:1014E000ADEB070000F1200B600702D524F4803437
:1014F00001E04FF0010ADA4502DDAAEB0B0000E043
:101500000020824600EB0B0108980144A9EB010082
:101510000A90E00306D4DDE90D2321460A9800F085
:101520004DF806444FF0000908E009A911F8090038
:10153000DDE90D12904709F10109761C08998945EA
:10154000F3DBE0030CD5DDE90D2321460A9800F01A
:1015500035F8064404E0DDE90D1230209047761C92
:10156000BAF10001AAF1010AF5DC05E0DDE90D128E
:1015700017F8010B9047761CBBF10001ABF1010B92
:10158000F4DC0A982146DDE90D2300F005F8064455
:101590006D1C97E6092801002DE9F041044600255D
:1015A0001E461746880404D405E039462020B0477B
:1015B0006D1C641EF9D52846BDE8F0812DE9F04187
:1015C000044600251E469046C80301D5302700E09A
:1015D0002027880404D505E041463846B0476D1CF5
:1015E000641EF9D52846BDE8F0810A68531C0B60DB
:1015F0001070704730B5B3B00C460546C821684638
:10160000FEF749FE23462A4607496846FFF714FEBF
:1016100082B2642369460548FFF7A0FC4FF4FA70D4
:10162000FEF74AFF33B030BDFC210008CC0100209A
:101630002DE9F04190460E461046FEF737FE07466C
:1016400000252C46701C00F0B5FB2CE003DA18F8DE
:1016500005306D1C00E00023BD4203DA18F80520B8
:101660006D1C00E00022BD4203DA18F805106D1C65
:1016700000E000211B0403EB022211441C4AC1F3C9
:101680008543D35C0355C1F30533641CD35C035518
:10169000C1F38513641CD35C035501F03F01641C46
:1016A000515C0155641CBD42D0DB4FF000014FF08E
:1016B0003D024FF003030F4C07E000BFA6EB01050E
:1016C000054401F1010105F8012C96FBF3F503FB3C
:1016D000156554F825508D42F0DC0021815502E05B
:1016E00008F80120491C425C002AF9D1BDE8F081CC
:1016F0003020000810000020F0B595B0342104A877
:10170000FEF7C9FD0020119012900646139038A1F3
:101710004248FFF791FD424D404982B24FF47A743E
:10172000A860234601F5C870FFF718FC670005E0C4
:101730003B460A2211A93B48FFF7B0FB9DF8440045
:101740000028F5D011A8FEF7C6FD0246019036A18B
:101750003248FFF771FD82B2A86023462F49314815
:10176000FFF7FCFB0198FEF787FDFEF77BFD40F6D7
:10177000FF7190FBF1F201FB120401A86C6000F014
:10178000EDF9204600F0F1F901A800F0E7F9024672
:10179000204600F0EAF9686021461046FFF72AFF6C
:1017A00001986968471A884205DD204600F0DDF996
:1017B000394600F067F801986968884205DA2046E2
:1017C00000F0D3F9394600F0F9FB019869688842C6
:1017D00009D122A104A8FFF72FFD82B2642304A936
:1017E0001048FFF7BBFB761C012ED9DB15B0F0BD0E
:1017F0000A566575696C6C657A20656E7472657AD7
:10180000206C612074656D706572617475726520FD
:10181000736F7568616974650A0D00003C000020F3
:1018200000000020CC0100206C612074656D7065A3
:101830007261747572652071756520766F7573209D
:101840006176657A2072656E7472652065737420A6
:101850006465202564430A0D000000004C65206685
:101860006F7572206573742061206C6120626F6EE9
:101870006E652074656D70657261747572650A0DB0
:10188000000000002DE9F0418EB00D4604463421E1
:101890006846FEF700FD4FF47A774FF4FA780D4E64
:1018A00013E03846641C6D1EFEF706FE22460AA1B0
:1018B0006846FFF7C1FC82B2642369460D48FFF712
:1018C0004DFB4046FEF7F8FD7460002DE9DC0EB0DC
:1018D000BDE8F081000000206C612074656D7065CA
:1018E0007261747572652065737420646520256467
:1018F0000A0D0000CC0100202DE9F04F93B0064600
:10190000002089461090202108A8FEF7C4FC202161
:101910006846FEF7C0FC4FF0000841F288370DF131
:10192000200AEB46644C2FE03B461E2208A9634880
:10193000FFF7B4FA9DF820000028F5D0002518E044
:10194000C5EB051109EB810108A8FEF7B6FC0028DC
:1019500029D0B5420CD1594859A1C838FFF76CFCC1
:10196000564982B2E0606423C8395448FFF7F6FA5A
:101970006D1CB542E4DB0020014652465B46115423
:101980001954401C1E28FADB4C4854A1C838FFF7F4
:1019900053FC4A4982B2E0604FF47A73C839474831
:1019A000FFF7DCFAC6E7454808AA56A1C838FFF792
:1019B00043FC424982B2E0604FF47A73C8393F4831
:1019C000FFF7CCFA11953FE03B461E2269463B48A3
:1019D000FFF764FA9DF800000028F5D06846FEF78E
:1019E00065FC0321801CB0FBF1F081004B466A4688
:1019F0001098FFF71DFE109800F0BEF81198C0EB8C
:101A0000001109EB810168461E31FEF756FC48B310
:101A10002A4841A1C838FFF70FFC284982B2E0608C
:101A20006423C8392548FFF799FA002008F1010816
:101A30004FEA00050AF800500BF80050401C1E2821
:101A4000F8DBB8F1030F1DD01C4835A1C838FFF7EB
:101A5000F3FB1A4982B2E0606423C8391748FFF7E4
:101A60007DFAB7E74946304600F05EFA00200146AD
:101A700052465B4611541954401C1E28FADB13B021
:101A8000BDE8F08F0D482DA1C838FFF7D5FB0B49F5
:101A900082B2E0606423C8390848FFF75FFA00208B
:101AA0005246594615540D54401C1E28FADB49462F
:101AB000304600F0B5F9E2E700000020CC0100203C
:101AC0004964656E74696669616E7420696E7472CA
:101AD0006F757661626C65202D3E200056657569D4
:101AE0006C6C657A20656E7472657220766F7472A4
:101AF00065206964656E74696669616E74203A2058
:101B00000A0D00000A0D426F6E6A6F757220257310
:101B100020210A0D00000000666175782020000079
:101B2000456E7472657A20766F747265206D6F747D
:101B30002064652070617373650A0D0074726F70A4
:101B4000206427657272657572207265746F757294
:101B5000206175206D656E756E0D00000068C821EE
:101B6000C0EB003090FBF1F07047C821484340F6CD
:101B7000FF7190FBF1F0704710B5002821D0114B98
:101B80000022001F196803E0814203D80A46496811
:101B90000029F9D152B11368841A9C4204D100681B
:101BA00018441060104602E0506000E0186039B13F
:101BB00002680B1A934203D10B681A440260496809
:101BC000416010BD300000202DE9F0470F46064669
:101BD0004FF0000A37A14048FFF72EFBDFF8FC80EA
:101BE0003D4982B2C8F80C00642301F1C800FFF738
:101BF000B5F9C6EB061441F2883907EB840506E017
:101C0000354829464B461E22C830FFF747F917F8DA
:101C100024000028F4D032A12F48FFF70DFB2E49F5
:101C200082B2C8F80C004FF47A7301F1C800FFF7D4
:101C300095F9C6EB061007EB80041E3406E0264833
:101C400021464B461E22C830FFF728F9A87F0028FE
:101C5000F5D02A4623462BA11F48FFF7EDFA1E496F
:101C600082B2C8F80C004546642301F1C800FFF7B2
:101C700075F92046FEF71AFB0321801CB0FBF1F03A
:101C8000810022463B465046FFF7D2FC5046FFF704
:101C900073FF224624A11048FFF7CEFA0E4982B204
:101CA000E860642301F1C800FFF758F9701CBDE833
:101CB000F0870000566575696C6C657A20656E74F6
:101CC00072657220756E206964656E7469666961FB
:101CD0006E74203A200A0D0004010020000000204C
:101CE000566575696C6C657A20656E7472657220D4
:101CF0006D6F74206465207061737365203A200AEB
:101D00000D0000000A0A6964656E74696669616E97
:101D100074203A2025732070617373776F7264208A
:101D20003A2025730A0A0D000A70617373776F7287
:101D30006420656E636F64653A2025730A0A0D009E
:101D400000B5ADF5177DFEF7C5FCFFF769F916483C
:101D50000021026842F080020260026802F0800204
:101D60009692026842F00102026000680F4A00F099
:101D7000010096900E4802604FF41652C0E901210E
:101D80000C22C160C0E904128161C161FFF720F833
:101D900008B172B6FEE7694600F042F8411CFAD17C
:101DA0000DF5177D002000BD303802400044004092
:101DB000CC010020F0B50B30154D20F007010024B8
:101DC000144A0FE003688B420BD38B4205D95E1A8D
:101DD00043184768C3E9006700E04368136002C026
:101DE00004E0021D10680028ECD12046002802D132
:101DF000286808B10020F0BD064A07481060074A6D
:101E0000121A22F00702C0E9002401202860D7E757
:101E100034000020300000201402002010040020B4
:101E2000FEB50D4600210091019108462B4A029112
:101E300001E01154401C135C002BFAD128492748BB
:101E4000FFF7FAF9274C254982B2E0604FF47A7324
:101E500001F1C800FFF782F8266806E01F486423F6
:101E60000A226946C830FFF719F89DF800000028DB
:101E7000F4D06846FEF72FFA28B1012812D00228C4
:101E800025D019A117E01CA11448FFF7D5F9134973
:101E900082B2E060642301F1C800FFF75FF84FF001
:101EA000FF30FEBD0A2E05DA29463046FFF78CFECC
:101EB000206010E014A10948FFF7BEF9074982B27B
:101EC000E060642301F1C800FFF748F803E0294609
:101ED0003046FFF711FD3046FEBD00000401002032
:101EE000102100080000002064656661756C742094
:101EF0006D656E75320A0D004175207265766F69E9
:101F00007220210A0D0000004465736F6C65206922
:101F10006C207920612074726F70206427696E7361
:101F200063726974730A0D00FEB5064600200D4603
:101F30000090019002901A491A48FFF77DF91A4C57
:101F4000184982B2E0604FF47A7301F1C800FFF7DC
:101F500005F806E0134864230A226946C830FEF7F4
:101F60009DFF9DF800000028F4D06846FEF7B3F905
:101F700070B1012811D00DA10A48FFF75DF9094998
:101F800082B2E060642301F1C800FEF7E7FFFEBD06
:101F900029463046FFF744FFFEBDFFF7ADFBFEBD0F
:101FA00084210008040100200000002064656661AF
:101FB000756C74206D656E75320A0D002DE9F04167
:101FC0008EB00D46044634216846FEF764F94FF49E
:101FD0007A774FF4FA780D4E13E03846641E6D1C84
:101FE000FEF76AFA22460AA16846FFF725F982B28F
:101FF000642369460D48FEF7B1FF4046FEF75CFAE0
:102000007460002DE9DB0EB0BDE8F0810000002017
:102010006C612074656D70657261747572652065A0
:1020200073742064652025640A0D0000CC01002033
:102030004142434445464748494A4B4C4D4E4F5018
:102040005152535455565758595A616263646566E4
:102050006768696A6B6C6D6E6F7071727374757698
:102060007778797A303132333435363738392B2F27
:102070000000000000000000000102030406070841
:1020800009000000000102030400404040404040BD
:10209000404040414141414140404040404040403B
:1020A00040404040404040404040050202020202A1
:1020B000020202020202020202022020202020204C
:1020C00020202020020202020202029090909090B2
:1020D0009010101010101010101010101010101080
:1020E00010101010100202020202028888888888EC
:1020F00088080808080808080808080808080808E0
:102100000808080808020202024000008A200008AD
:102110000A4269656E76656E756520212056657583
:10212000696C6C657A2073656C656374696F6E6544
:102130007220756E6520646573206F7074696F6EB0
:10214000203A0A0A0D302E20517569747465722088
:102150006C652070726F6772616D6D650A0D312E4E
:10216000205327696E7363726972650A0D322E20DF
:10217000536520636F6E6E65637465720A0A0A0D9B
:10218000000000000A436F6E6E6578696F6E207202
:102190006575737369652C20766575696C6C657AF5
:1021A0002073656C656374696F6E657220756E650A
:1021B00020646573206F7074696F6E203A0A0A0D8F
:1021C000302E206465636F6E6E6578696F6E0A0DE0
:1021D000312E205265676C6572206C612074656DCC
:1021E000706572617475726520646520766F7472B3
:1021F0006520666F75720A0D000000006C61207624
:10220000616C6575726520616E616C6F676971756F
:1022100065206465206C277574696C6973617465E9
:10222000757220657374203A2564206574206C6192
:102230002076616C657572652064752063617074C9
:10224000657572206573743A2025640A0D200000BC
:1022500070220008000000203C00000088120008E6
:10226000AC2200083C000020D407000098120008AF
:10227000000000000000000000000000000000005E
:10228000000000000200000001000000010000004A
:1022900010000000000000000024F4000000000016
:0C22A00000000000000000000000000032
:04000005080001C529
:00000001FF
