:020000040800F2
:1000000028050020DD010008690F0008650F0008C1
:10001000670F0008870400089D1100080000000019
:100020000000000000000000000000006F0F00084A
:1000300089040008000000006B0F0008710F000821
:10004000F7010008F7010008F7010008F7010008B0
:10005000F70100086D0F0008F7010008F70100081C
:10006000F7010008F7010008F7010008F701000890
:10007000F7010008F7010008F7010008F701000880
:10008000F7010008F7010008F7010008F701000870
:10009000F7010008F7010008F7010008F701000860
:1000A000F7010008F7010008F7010008F701000850
:1000B000F7010008F7010008F7010008F701000840
:1000C000F7010008F7010008F7010008F701000830
:1000D000F7010008F7010008F7010008F701000820
:1000E000F7010008F7010008F7010008F701000810
:1000F000F7010008F7010008F7010008F701000800
:10010000F7010008F7010008F7010008F7010008EF
:10011000F7010008F7010008F7010008F7010008DF
:10012000F7010008F7010008F7010008F7010008CF
:10013000F70100080000000000000000F7010008BF
:10014000F7010008F7010008F7010008F7010008AF
:10015000F7010008F7010008F7010008F70100089F
:10016000F7010008F7010008F7010008F70100088F
:10017000F7010008F7010008F7010008000000007F
:1001800000000000F701000800000000000000006F
:10019000F70100080000000000000000F70100085F
:1001A000000000000000000000000000F70100084F
:1001B000F7010008F7010008F7010008F70100083F
:1001C000F7010008DFF810D000F0EAF80048004717
:1001D00029160008AFF30080280500200648804754
:1001E00006480047FEE7FEE7FEE7FEE7FEE7FEE71C
:1001F000FEE7FEE7FEE7FEE7F50F0008C501000891
:100200002DE9F05F0546002092469B46884606464B
:10021000814640241BE0284641464746224600F0DE
:1002200077F853465A46C01A914110D311461846E2
:10023000224600F05EF82D1A67EB01084F46224671
:100240000120002100F055F817EB00094E41201E57
:10025000A4F10104DFDC484631462A464346BDE8A6
:10026000F09F00000649074A0868504343F23902EC
:10027000104408604008704701490860704700005A
:10028000140000206D4EC641D2B201E000F8012BEF
:10029000491EFBD270470022F6E710B513460A4606
:1002A00004461946FFF7F0FF204610BD70B506461C
:1002B00000F09AFF046805460A220021304600F04B
:1002C00037F82C6070BD30B50B4601460020202267
:1002D000012409E021FA02F59D4205D303FA02F553
:1002E000491B04FA02F52844151EA2F10102F1DCB3
:1002F00030BD202A04DB203A00FA02F100207047CA
:100300009140C2F1200320FA03F319439040704753
:10031000202A04DB203A21FA02F00021704721FA5A
:1003200002F3D040C2F120029140084319467047C1
:100330002DE9F04791460F4680460446002614F802
:10034000015B2DB100F03EF80068405DC007F6D1BA
:100350002B2D02D02D2D18D0641E4A46394620463A
:1003600000F034F827B13968A14201D1C7F8008004
:1003700071054FF002040BD54042002803DD00F068
:1003800033FF0460A007BDE8F08746F48066E4E729
:100390000028F8DA00F028FF04606FF00040F2E770
:1003A000064C074D06E0E06840F0010394E80700C2
:1003B00098471034AC42F6D3FFF708FF64190008E1
:1003C00084190008004870470C1900082DE9F05FF7
:1003D00082460078002715468B460AF10104B9468B
:1003E000302801D09DB113E014F8010B01277828C3
:1003F00003D0582801D045B10AE00DB1102D07D126
:100400000027102514F8010B02E0082500E00A255A
:100410000026B0460EE005FB080005FB06F10127AB
:1004200001EB10461FFA80F8B6F5803F00D3B946BD
:1004300014F8010B294600F018F80028EBDABBF19C
:10044000000F05D00FB1641E00E05446CBF8004009
:10045000B9F1000F06D000F0C7FE02210160C81EEE
:10046000BDE8F09F48EA0640FAE73A2800D2303863
:1004700020F02002412A01D3A2F13700884201D3A3
:100480004FF0FF307047FEE77047000070B504463C
:1004900000F0E2F80546601C02D0044800780444ED
:1004A00000F0DAF8401BA042FAD370BD040000202F
:1004B0002DE9F84F00224FF0010803254FF00F0EF1
:1004C0000B6808FA02F42340A3426ED14E68012E55
:1004D00005D0022E03D0112E01D0122E12D1866823
:1004E0004FEA420C05FA0CF7BE43CF6807FA0CF747
:1004F000374387604668A6430C79C4F300149440E0
:1005000034434460C668570005FA07FC8C6826EA45
:100510000C06BC403443C4604C68022C01D0122C41
:1005200013D1D40800EB8404A346D4F820905407D8
:100530004FEAD46A0EFA0AF629EA06090E6906FAA3
:100540000AF646EA0906CBF8206006680C7926EA26
:100550000C0604F00304BC40344304604C68E4001F
:1005600060D5334C266846F480462660246822F025
:10057000030604F4804400942E4C3444A446D4F87A
:1005800008489607370F0EFA07F6B4432A4EB042D2
:1005900001D100261FE0294EB04201D101261AE008
:1005A000274EB04202D1022615E03BE0254EB04274
:1005B00001D103260FE0244EB04201D104260AE007
:1005C000224EB04201D1052605E0214EB04201D1B4
:1005D000062600E00726BE402643CCF808681D4EDC
:1005E00034684F689C43FF0300D51C433460194EA8
:1005F000361D34684F689C43BF0300D51C433460EC
:10060000144E083634684F689C43FF0200D51C43E3
:100610003460104E0C3634684F689C43BF0200D5DE
:100620001C433460521C102AFFF44AAFBDE8F88F17
:100630004438024000300140000002400004024003
:1006400000080240000C024000100240001402406A
:1006500000180240003C01400148806870470000DB
:1006600004000020024881680278114481607047CC
:10067000040000200B4810B5016841F400710160CE
:10068000016841F480610160016841F4807101609A
:10069000032000F077F8002000F006F800F024F8BE
:1006A000002010BD003C024070B50D4D04464FF4D3
:1006B0007A712878B1FBF0F00A490968B1FBF0F0D3
:1006C00000F01AFB48B9102C07D200222146501E18
:1006D00000F038F800206C6070BD012070BD000093
:1006E00004000020100000200E4808B5016841F405
:1006F00080410160006800F4804000900948001FBC
:10070000016841F0805101600068002200F08050D3
:1007100000901146052000F015F8BDE808400520BE
:1007200000F002B844380240002809DB00F01F0244
:10073000012191404009800000F1E020C0F8001143
:1007400070470000F0B40E4B1B680C46C3F3022345
:10075000C3F10705042D00D90425191D072901D26D
:10076000002300E0DB1E012606FA05F1491E2140A8
:1007700099409E40761E16403143F0BC00F024BDE7
:100780000CED00E0064900F0070208684FF6FF0391
:10079000184040EA0220034A1043086070470000F6
:1007A0000CED00E00000FA052DE9F0470E460500CB
:1007B00065D0DFF81481D8F80000F7B200F00F0020
:1007C000B04207D288F80070D8F8000000F00F009F
:1007D000B04254D128683D4C810712D5400703D55B
:1007E000206840F4E05020602878000703D5206896
:1007F00040F4604020602068A96820F0F0000843C1
:1008000020602878C0072DD0304968680839012851
:1008100012D0022813D0032811D0096889070029B3
:100820002DDA216821F0030101432160FFF714FF55
:10083000814641F2883A0EE009688903EFE70968CA
:100840008901ECE7FFF708FFA0EB0901514502D948
:100850000320BDE8F0872068696800F00C00B0EB69
:10086000810FEFD1D8F80010404601F00F01B142DE
:1008700007D90770006800F00F00B04201D00120D6
:10088000E7E72878400705D52068E96820F4E050BC
:10089000084320602878000706D52068296920F4DD
:1008A000604040EAC100206000F038F82168084A42
:1008B000C1F30311515CC84006490860064800684E
:1008C000FFF7F2FE0020C4E7003C02400838024077
:1008D0007018000810000020080000200448054996
:1008E00000680968044AC1F38221515CC84070471E
:1008F000100000200838024080180008044805490C
:1009000000680968044AC1F34231515CC84070472D
:10091000100000200838024080180008224810B556
:10092000006810F00C02214815D02149042A11D08A
:100930001D4C241F082A0FD00C2A0CD122682368D2
:1009400002F03F025B0221D52068C0F38810A0FBB3
:10095000010120E0084610BD2268236802F03F0232
:100960005B0205D52068C0F38810A0FB010104E0FC
:100970002168C1F38811A1FB00010023FFF740FCAF
:100980002168C1F30141491C49000AE02168C1F313
:100990008811A1FB00010023FFF732FC2168C1F39D
:1009A0000271B0FBF1F010BD083802400024F400E1
:1009B00040787D012DE9F84F0546DFF828B300782F
:1009C000ABF10407C007A7F1040451D0DBF8001015
:1009D0005846C1F3810101290FD00168C1F381019B
:1009E000022902D13968490207D40068C0F38100A6
:1009F000032809D13868400206D52068800337D51E
:100A00006868002872D033E06868B0F5803F10D085
:100A1000B0F5A02F206810D020F48030206020682E
:100A200020F4802020606868A8B1FFF715FE064614
:100A30000DE0206840F48030F4E740F4802020602E
:100A4000F7E700BFFFF708FE801B642878D820680E
:100A50008003F7D50CE0FFF7FFFD064605E000BF79
:100A6000FFF7FAFD801B6428F0D820688003F7D4D4
:100A70002878DFF8749280074FF0000A46D5DBF83B
:100A80000010584611F00C0F0FD00168C1F381011E
:100A9000022902D13968490207D50068C0F38100F4
:100AA000032809D13868400206D42068800715D58C
:100AB000E86801281AD111E0E868C0B10120C9F83E
:100AC0000000FFF7C9FD064605E000BFFFF7C4FDC3
:100AD000801B0228BAD820688007F7D520682969CA
:100AE00020F0F80040EAC10020600FE0F7E0C9F80C
:100AF00000A0FFF7B1FD064605E000BFFFF7ACFD23
:100B0000801B02281CD820688007F7D428780007AB
:100B100027D5DFF8D0817548696908F16C0881B183
:100B200001210160FFF798FD064604E0FFF794FD00
:100B3000801B022804D8D8F800008007F6D510E002
:100B400089E0C0F800A0FFF787FD064605E000BF7A
:100B5000FFF782FD801B02287DD8D8F800008007AF
:100B6000F6D42878400769D55E484FF00008383041
:100B70000068C0000BD45B483830016841F08051F8
:100B8000016000684FF0010800F080500090584E5E
:100B90003068C00511D4306840F480703060FFF7D1
:100BA0005BFD009006E000BFFFF756FD0099401A7C
:100BB000022850D83068C005F6D54A4EA868683675
:100BC00001280FD00528306810D020F001003060D7
:100BD000306820F004003060A868B8B1FFF73CFD31
:100BE00000900FE0306840F00100F4E740F00400AE
:100BF0003060F7E7FFF730FD0099411A41F2883085
:100C0000814264D830688007F4D50EE0FFF724FDF8
:100C1000009007E0FFF720FD0099411A41F288306B
:100C2000814254D830688007F4D4B8F1000F05D061
:100C30002C483830016821F080510160A869A8B3C0
:100C4000DBF80010C1F38101022948D00228C9F85D
:100C500060A005D000E03AE0FFF7FEFC054639E071
:100C6000FFF7FAFC064604E0FFF7F6FC801B0228BB
:100C70002DD820688001F7D4F5E907010843E96819
:100C80001C4A490802EB0141AA6841EA8211084363
:100C9000297C40EA0160297D40EA0170386001202A
:100CA000C9F86000FFF7D8FC054606E015E000BF74
:100CB000FFF7D2FC401B022809D820688001F7D535
:100CC0000BE000BFFFF7C8FC401B022802D903203D
:100CD000BDE8F88F20688001F4D40020F8E70120F7
:100CE000F6E700000838024000004742800E474205
:100CF000007000400000FFFF10B5401EB0F1807F83
:100D000001D3012010BD4FF0E02460610F21601776
:100D100000F05AFA0020A06107202061002010BDD9
:100D200070B5040004D094F83900002510B106E035
:100D3000012070BD84F83850204600F023F82420AC
:100D400084F839002068C16821F40051C160204650
:100D500000F05EF92068016921F49041016120688A
:100D6000416921F02A0141612068C16841F40051C4
:100D7000C160E563202084F8390084F83A0000203F
:100D800070BD000010B586B0044614216846FFF718
:100D900082FA13492068884220D112480021026853
:100DA00042F400320260006800F4003005900D4803
:100DB0001038026842F001020260006800F0010091
:100DC00005900C2000900220CDE901010320039042
:100DD0000720049069460448FFF76AFB06B010BD7F
:100DE0000044004040380240000002402DE9F84332
:100DF000044690F83A00994616460D46202852D1EE
:100E0000BDB1B6B194F8380001284CD0012084F867
:100E100038000027E763222084F83A002C34FFF7DB
:100E20001BFC24F8026B804624F80A6B04F838791E
:100E300031E00120BDE8F883E08D401EE085A06828
:100E40004346B0F5805F4FF000024FF0200120468E
:100E5000CDF8009004D000F06FF998B10320E9E7D5
:100E600000F06AF90028F9D120690028206840685C
:100E700003D0C1B225F8011B0DE0C0F3080125F82D
:100E8000021B08E0206900282068406801D000F0BB
:100E90007F0005F8010BE08D0028CDD1202084F8DB
:100EA0003A000020C6E70220C4E72DE9F8430446D3
:100EB00090F839001F4616460D46202850D1B5B18E
:100EC000AEB194F8380001284AD0012084F83800E7
:100ED0004FF00008C4F83C80212084F83900FFF767
:100EE000BBFBA6848146E68484F8388026E0012096
:100EF000BDE8F883E08C401EE084A0684B46B0F566
:100F0000805F4FF000024FF080012046009703D031
:100F100000F012F9E8B90DE000F00EF9C8B9288820
:100F20002168C0F308004860206908B16D1C05E025
:100F3000AD1C03E0216815F8010B4860E08C002827
:100F4000D8D14B46002240212046009700F0F4F80B
:100F500008B10320CCE7202084F839000020C7E73F
:100F60000220C5E7FEE7FEE7FEE7704770477047DF
:100F7000FFF778BB10B594B034216846FFF78BF9C2
:100F800014210DA8FFF787F918480024016841F0E3
:100F900080510160006800F0805012901448016890
:100FA00021F4404141F4804101600068069400F45E
:100FB00040401290022000900120039010200490E5
:100FC0006846FFF7F7FC08B172B6FEE70F20CDE9DF
:100FD0000D040F94109400210DA81194FFF7E4FB69
:100FE000002801D072B6FEE714B010BD40380240B0
:100FF000007000400548016841F470010160034938
:101000004FF00060803908607047000088ED00E014
:101010002DE9F041044600680169E26821F440517D
:10102000114301612169A068E269084361691143C4
:1010300008432168CA6849F20C639A430243CA60B4
:1010400020684169A26921F4407111434161E0695E
:10105000192764253226B0F5004F354A35492068F6
:101060004FF0000806D0884201D0904236D1FFF7F9
:1010700045FC35E0884201D0904202D1FFF73EFCAA
:1010800001E0FFF72BFC61684A18A0FB070148EB61
:101090000803FFF7B5F80146B0FBF5F00201B1FB1C
:1010A000F5F06FF01803584301EB800006EBC00029
:1010B000B0FBF5F000F0F80002EB4002B1FBF5F0F8
:1010C000584301EB800006EBC000B0FBF5F000F0E8
:1010D0000700216810448860BDE8F081FFF7FEFB3F
:1010E00061688B0F8A00A0FB0701FFF789F80146B2
:1010F000B0FBF5F06FF01802504301EB800006EBF7
:101100000010B0FBF5F000F0F002B1FBF5F002EBDF
:101110000012B1FBF5F06FF01803584301EB8000AB
:1011200006EB0010B0FBF5F000F00F00D1E7000077
:1011300000140140001001402DE9F0419846174687
:101140000E460446069D1DE0681C1BD02DB1FFF71E
:1011500083FAA0EB0800A84214D92068C16821F4E2
:10116000D071C1602068416921F0010141612020F6
:1011700084F8390084F83A00002084F8380003200D
:10118000BDE8F0812068006836EA000004D0002045
:10119000B842D9D00020F3E70120F9E7FEE70000CC
:1011A0000FB4084B10B504A902AA039800F030F858
:1011B000044602A9002000F0CCF9204610BC5DF8DE
:1011C00014FB0000531500080907090E002804DB72
:1011D00000F1E02080F80014704700F00F0000F1EB
:1011E000E02080F8141D7047004870471800002068
:1011F00002E008C8121F08C1002AFAD170477047E0
:10120000002001E001C1121F002AFBD1704700003D
:101210002DE9FF4F8BB088460546002606E02528BD
:101220000BD0DDE90D1290476D1C761C2878002844
:10123000F5D10FB03046BDE8F08F0024A146A2469C
:101240000122AE4900E0044315F8013F203B02FAB9
:1012500003F00842F7D128782A2810D06FF02F0227
:101260002878A0F13001092915D809EB890102EB92
:10127000410144F0020400EB01096D1CF0E758F84D
:10128000041B5FEA010903D544F40054C9F10009C5
:1012900044F002046D1C28782E2817D115F8010F90
:1012A00044F004042A280ED06FF02F022878A0F111
:1012B000300109290AD80AEB8A0102EB410100EB4F
:1012C000010A6D1CF2E758F804AB6D1C28786C28F5
:1012D0000FD006DC4C2817D068280DD06A2814D10E
:1012E00004E0742810D07A280FD10DE044F40014E3
:1012F0000AE044F4801401E044F440146978814227
:1013000002D104F580146D1C6D1C2878692865D005
:1013100006DC00288DD0632827D0642806D15DE044
:101320006E2808D073282AD0752877D0DDE90D12F1
:101330009047761CE0E0C4F30250022809D003284D
:101340000DD0D8F8001004280DD00E6008F1040864
:10135000D2E0D8F80010F217C1E90062F6E7D8F839
:1013600000100E80F2E70E70F0E718F8041B8DF8FD
:10137000001000208DF80100EB46012003E058F832
:1013800004BB4FF0FF3061074FF0000701D40AE0C3
:101390007F1C57450DDA8742FADB1BF8071000293E
:1013A000F6D106E07F1C8742FCDB1BF80710002902
:1013B000F8D1DDE90D23A9EB07008146214600F0B5
:1013C000B1F83044C61904E0DDE90D121BF8010B39
:1013D00090477F1EF8D22146484688E058F8040B13
:1013E000C4F302514FF00A0B032900D100B20429C3
:1013F00000D140B2002802DA40422D2102E021054E
:1014000005D52B218DF82410012104E006E0E10729
:1014100010D02021F6E708AF089113E058F8040B2C
:10142000C4F302514FF00A0B032900D180B2042902
:1014300000D1C0B20021EEE75946FEF744FF30313B
:1014400007F8011D0028F7D1ADEB070000F1200BD4
:10145000600702D524F4803401E04FF0010ADA4538
:1014600002DDAAEB0B0000E00020824600EB0B013E
:1014700008980144A9EB01000A90E00306D4DDE9D5
:101480000D2321460A9800F04DF806444FF000095C
:1014900008E009A911F80900DDE90D12904709F1EA
:1014A0000109761C08998945F3DBE0030CD5DDE9D9
:1014B0000D2321460A9800F035F8064404E0DDE9E2
:1014C0000D1230209047761CBAF10001AAF1010AF2
:1014D000F5DC05E0DDE90D1217F8010B9047761CED
:1014E000BBF10001ABF1010BF4DC0A982146DDE908
:1014F0000D2300F005F806446D1C97E6092801004D
:101500002DE9F041044600251E461746880404D400
:1015100005E039462020B0476D1C641EF9D52846E9
:10152000BDE8F0812DE9F041044600251E469046B5
:10153000C80301D5302700E02027880404D505E042
:1015400041463846B0476D1C641EF9D52846BDE8B3
:10155000F0810A68531C0B601070704730B5B3B04F
:101560000C460546C8216846FEF795FE23462A46E6
:1015700007496846FFF714FE82B2642369460548AE
:10158000FFF793FC4FF4FA70FEF780FF33B030BDE5
:1015900010190008E40000202DE9F0418EB00D463E
:1015A000044634216846FEF776FE4FF47A774FF40E
:1015B000FA780D4E13E03846641C6D1EFEF766FF88
:1015C00022460AA16846FFF7EBFD82B26423694612
:1015D0000D48FFF76AFC4046FEF758FF3460002DC7
:1015E000E9DC0EB0BDE8F081000000206C612074E1
:1015F000656D7065726174757265206573742064C1
:10160000652025640A0D0000E40000200068C82160
:10161000C0EB003090FBF1F07047C821484340F622
:10162000FF7190FBF1F07047F0B595B0FFF722F82D
:10163000FFF7A0FC4C480024016841F00101016063
:1016400000684A4900F001000190494801604FF4E8
:101650001651C0E901144FF48061C0E903410C2127
:10166000C0E90514C461FFF75BFB08B172B6FEE781
:10167000342103A8FEF70FFE3D4811941294002672
:101680003CA1C8381394FFF78BFD394982B24FF45F
:101690007A742346C8393648FFF707FC650005E031
:1016A0002B460A2211A93248FFF7A0FB9DF84400FF
:1016B0000028F5D011A8FEF7F9FD024600902C484D
:1016C00037A1C838FFF76CFD294982B22346C839D3
:1016D0002748FFF7EAFB0098FEF7CEFDFEF7C2FDB4
:1016E00040F6FF7190FBF1F201FB1204384D6846A1
:1016F0002C60FFF78BFF2046FFF78FFF6846FFF750
:1017000085FF02462046FFF788FF286021461046E5
:10171000FFF724FF009928680F1A814205DD204653
:10172000FFF77BFF3946FFF737FF009829688842AB
:1017300005DA2046FFF771FF394600F05FF80098A0
:101740002968884209D123A103A8FFF729FD82B2A5
:10175000642303A90648FFF7A8FB761C012ED9DBFA
:1017600015B00020F0BD00003038024000440040B9
:10177000E40000200A566575696C6C657A20656E18
:101780007472657A206C612074656D706572617425
:1017900075726520736F7568616974650A0D000064
:1017A0006C612074656D706572617475726520710D
:1017B000756520766F7573206176657A2072656E27
:1017C000747265206573742064652025640A0D00B9
:1017D000000000204C6520666F75722065737420D0
:1017E00061206C6120626F6E6E652074656D70653E
:1017F0007261747572650A0D000000002DE9F041F8
:101800008EB00D46044634216846FEF744FD4FF481
:101810007A774FF4FA780D4E13E03846641E6D1C4B
:10182000FEF734FE22460AA16846FFF7B9FC82B2F1
:10183000642369460D48FFF738FB4046FEF726FE55
:101840003460002DE9DB0EB0BDE8F081000000201F
:101850006C612074656D7065726174757265206568
:1018600073742064652025640A0D0000E4000020E4
:101870000000000000000000010203040607080940
:10188000000000000102030400404040404040408E
:101890004040414141414140404040404040404043
:1018A00040404040404040404005020202020202E7
:1018B0000202020202020202022020202020202036
:1018C000202020020202020202029090909090904A
:1018D0001010101010101010101010101010101008
:1018E000101010100202020202028888888888887C
:1018F0000808080808080808080808080808080868
:1019000008080808020202024000000089180008C6
:101910006C612076616C6575726520616E616C6FBB
:101920006769717565206465206C277574696C69D9
:1019300073617465757220657374203A256420653F
:1019400074206C612076616C657572652064752009
:1019500063617074657572206573743A2025640A3A
:101960000D20000084190008000000201C00000069
:10197000F0110008A01900081C0000200C05000050
:10198000001200080000000001000000100000002C
:10199000000000000024F40000000000000000002F
:04000005080001C529
:00000001FF
