:020000040800F2
:1000000098040020DD0100084B0E0008470E000890
:10001000490E0008110300087110000800000000DC
:10002000000000000000000000000000510E000869
:1000300013030008000000004D0E0008530E0008D6
:10004000F7010008F7010008F7010008F7010008B0
:10005000F70100084F0E0008F7010008F70100083B
:10006000F7010008F7010008F7010008F701000890
:10007000F7010008F7010008F7010008F701000880
:10008000F7010008F7010008F7010008F701000870
:10009000F7010008F7010008F7010008F701000860
:1000A000F7010008F7010008F7010008F701000850
:1000B000F7010008F7010008F7010008F701000840
:1000C000F7010008F7010008F7010008F701000830
:1000D000F7010008F7010008F7010008F701000820
:1000E000F7010008F7010008F7010008F701000810
:1000F000F7010008F7010008F7010008F701000800
:10010000F7010008F7010008F7010008F7010008EF
:10011000F7010008F7010008F7010008F7010008DF
:10012000F7010008F7010008F7010008F7010008CF
:10013000F70100080000000000000000F7010008BF
:10014000F7010008F7010008F7010008F7010008AF
:10015000F7010008F7010008F7010008F70100089F
:10016000F7010008F7010008F7010008F70100088F
:10017000F7010008F7010008F7010008000000007F
:1001800000000000F701000800000000000000006F
:10019000F70100080000000000000000F70100085F
:1001A000000000000000000000000000F70100084F
:1001B000F7010008F7010008F7010008F70100083F
:1001C000F7010008DFF810D000F090F80048004771
:1001D00069160008AFF300809804002006488047A5
:1001E00006480047FEE7FEE7FEE7FEE7FEE7FEE71C
:1001F000FEE7FEE7FEE7FEE7F10E0008C501000896
:100200002DE9F05F0546002092469B46884606464B
:10021000814640241BE0284641464746224600F0DE
:1002200054F853465A46C01A914110D31146184605
:10023000224600F03BF82D1A67EB01084F46224694
:100240000120002100F032F817EB00094E41201E7A
:10025000A4F10104DFDC484631462A464346BDE8A6
:10026000F09F00000649074A0868504343F23902EC
:10027000104408604008704701490860704700005A
:100280001C0000206D4EC641D2B201E000F8012BE7
:10029000491EFBD270470022F6E710B513460A4606
:1002A00004461946FFF7F0FF204610BD202A04DB64
:1002B000203A00FA02F1002070479140C2F1200379
:1002C00020FA03F3194390407047202A04DB203AB8
:1002D00021FA02F00021704721FA02F3D040C2F166
:1002E000200291400843194670470000064C074D14
:1002F00006E0E06840F0010394E8070098471034F6
:10030000AC42F6D3FFF762FFE417000804180008B8
:10031000FEE770472DE9F84FDFF8ACA10022012479
:100320000AF1040B03254FF00F090BF1040E00BF77
:100330000B6804FA02F63340B34272D10F7907F02A
:100340000307012F01D0022F16D187684FEA420818
:1003500005FA08FC27EA0C07D1F80CC00CFA08FCD7
:100360004CEA070CC0F808C04768B7430E79C6F3DB
:10037000001696403E4346600E79F643B6070AD013
:10038000C6684FEA420C05FA0CF7BE438F6807FABD
:100390000CF73743C7600E7906F00306022E10D122
:1003A000D60800EB8608D8F8206057074FEAD76CCC
:1003B00009FA0CF7BE430F6907FA0CF73743C8F880
:1003C000207006684FEA420C05FA0CF7BE430F791D
:1003D00007F0030707FA0CF7374307604E68F6008B
:1003E0006BD53A4E376847F480473760366822F05D
:1003F000030706F480460096354E07EB060CDCF842
:10040000086897074FEA177809FA08F7BE43314F93
:10041000B84201D100271FE02F4FB84202D1012777
:100420001AE04AE02D4FB84201D1022714E02C4FC8
:10043000B84201D103270FE02A4FB84201D1042767
:100440000AE0294FB84201D1052705E0274FB842FD
:1004500001D1062700E0072707FA08F73743CCF851
:100460000878DAF800605746D1F804C09E435FEA86
:10047000CC3C00D51E433E60DBF800605F46D1F8FF
:1004800004C09E435FEA8C3C00D51E433E60DEF80C
:1004900000607746D1F804C09E435FEACC2C00D5BB
:1004A0001E433E60084F0C373E68D1F804C09E439F
:1004B0005FEA8C2C00D51E433E60521C102AFFF4CC
:1004C00037AFBDE8F88F0000003C014044380240DF
:1004D00000300140000002400004024000080240D9
:1004E000000C0240001002400014024000180240BC
:1004F00001488068704700000C00002002488168B5
:1005000002781144816070470C0000200B4810B540
:10051000016841F400710160016841F4806101608B
:10052000016841F480710160032000F077F8002039
:1005300000F006F800F024F8002010BD003C024056
:1005400070B50D4D04464FF47A712878B1FBF0F088
:100550000A490968B1FBF0F000F042FB48B9102CE1
:1005600007D200222146501E00F038F800206C60AF
:1005700070BD012070BD00000C000020180000209C
:100580000E4808B5016841F480410160006800F43C
:10059000804000900948001F016841F080510160CF
:1005A0000068002200F0805000901146052000F005
:1005B00015F8BDE80840052000F002B844380240B4
:1005C000002809DB00F01F02012191404009800052
:1005D00000F1E020C0F8001170470000F0B40E4BAD
:1005E0001B680C46C3F30223C3F10705042D00D991
:1005F0000425191D072901D2002300E0DB1E012676
:1006000006FA05F1491E214099409E40761E16408B
:100610003143F0BC00F042BD0CED00E0064900F0B3
:10062000070208684FF6FF03184040EA0220034A19
:1006300010430860704700000CED00E00000FA0570
:100640002DE9F0470E46050065D0DFF81481D8F893
:100650000000F7B200F00F00B04207D288F8007037
:10066000D8F8000000F00F00B04254D128683D4C8B
:10067000810712D5400703D5206840F4E050206080
:100680002878000703D5206840F460402060206887
:10069000A96820F0F000084320602878C0072DD01A
:1006A000304968680839012812D0022813D003287D
:1006B00011D00968890700292DDA216821F003018A
:1006C00001432160FFF714FF814641F2883A0EE0B2
:1006D00009688903EFE709688901ECE7FFF708FF7C
:1006E000A0EB0901514502D90320BDE8F08720683D
:1006F000696800F00C00B0EB810FEFD1D8F8001062
:10070000404601F00F01B14207D90770006800F0C0
:100710000F00B04201D00120E7E72878400705D557
:100720002068E96820F4E05008432060287800073A
:1007300006D52068296920F4604040EAC1002060A5
:1007400000F038F82168084AC1F30311515CC84031
:100750000649086006480068FFF7F2FE0020C4E77B
:10076000003C024008380240CC1700081800002066
:10077000100000200448054900680968044AC1F3D4
:100780008221515CC84070471800002008380240A0
:10079000DC1700080448054900680968044AC1F3E9
:1007A0004231515CC84070471800002008380240B0
:1007B000DC170008224810B5006810F00C02214830
:1007C00015D04110042A11D01D4C241F082A0FD027
:1007D0000C2A0CD12268236802F03F025B0221D56B
:1007E0002068C0F38810A0FB010120E0084610BD7E
:1007F0002268236802F03F025B0205D52068C0F33F
:100800008810A0FB010104E02168C1F38811A1FB5D
:1008100000010023FFF7F4FC2168C1F30141491CEA
:1008200049000AE02168C1F38811A1FB00010023FF
:10083000FFF7E6FC2168C1F30271B0FBF1F010BDD7
:10084000083802400024F4002DE9F84F04007DD060
:10085000DFF878B32078ABF10407C007A7F10405EF
:1008600050D0DBF800105846C1F3810101290FD0A8
:100870000168C1F38101022902D13968490207D414
:100880000068C0F38100032809D13868400206D50A
:100890002868800336D560680028D8D032E06068C8
:1008A000B0F5803F10D0B0F5A02F286810D020F40C
:1008B00080302860286820F4802028606068A0B11B
:1008C000FFF716FE06460CE0286840F48030F4E797
:1008D00040F480202860F7E7FFF70AFE801B6428B9
:1008E00076D828688003F7D50CE0FFF701FE0646AE
:1008F00005E000BFFFF7FCFD801B6428F0D82868E6
:100900008003F7D42078DFF8C89280074FF0000A00
:1009100044D5DBF80010584611F00C0F0FD00168D9
:10092000C1F38101022902D13968490207D5006863
:10093000C0F3810003280AD13868400207D4286830
:10094000800715D5E068012800D111E03AE1E068A0
:10095000B0B10120C9F80000FFF7CAFD064604E067
:10096000FFF7C6FD801B0228BAD828688007F7D594
:100970002868216920F0F80040EAC10028600DE0F5
:10098000C9F800A0FFF7B4FD064604E0FFF7B0FD8C
:10099000801B02281CD828688007F7D4207800071D
:1009A00027D5DFF828828B48616908F16C0881B18E
:1009B00001210160FFF79CFD064604E0FFF798FD6A
:1009C000801B022804D8D8F800008007F6D510E074
:1009D00089E0C0F800A0FFF78BFD064605E000BFE8
:1009E000FFF786FD801B02287DD8D8F8000080071D
:1009F000F6D42078400769D574484FF000083830A5
:100A00000068C0000BD471483830016841F0805153
:100A1000016000684FF0010800F0805000906E4EB9
:100A20003068C00511D4306840F480703060FFF742
:100A30005FFD009006E000BFFFF75AFD0099401AE5
:100A4000022850D83068C005F6D5604EA0686836D8
:100A500001280FD00528306810D020F00100306048
:100A6000306820F004003060A068B8B1FFF740FDA6
:100A700000900FE0306840F00100F4E740F004001F
:100A80003060F7E7FFF734FD0099411A41F28830F2
:100A9000814264D830688007F4D50EE0FFF728FD66
:100AA000009007E0FFF724FD0099411A41F28830D9
:100AB000814254D830688007F4D4B8F1000F05D0D3
:100AC00042483830016821F080510160A069A8B324
:100AD000DBF80010C1F38101022947D00228C9F8D0
:100AE00060A005D000E03AE0FFF702FD044639E0DF
:100AF000FFF7FEFC064604E0FFF7FAFC801B022825
:100B00002DD828688001F7D4F4E907010843E1688B
:100B1000324A490802EB0141A26841EA82110843C6
:100B2000217C40EA0160217D40EA017038600120AB
:100B3000C9F86000FFF7DCFC044606E044E000BFB3
:100B4000FFF7D6FC001B022809D828688001F7D5DA
:100B50003AE000BFFFF7CCFC001B022802D90320BB
:100B6000BDE8F88F28688001F4D42DE00128F7D083
:100B70003868E26900F48001914223D1226A00F0D2
:100B80003F0191421ED147F6C071626A0140B1EB4C
:100B9000821F17D1A26A4FF0FF3300F4403103EBFC
:100BA0005202B1EB024F0DD194F82C2000F070618D
:100BB000B1EB026F06D194F8301000F0E040B0EBDA
:100BC000017F01D00120CBE70020C9E708380240AF
:100BD00000004742800E4742007000400000FFFFC7
:100BE00010B5401EB0F1807F01D3012010BD4FF041
:100BF000E02460610F21601700F050FA0020A0612E
:100C000007202061002010BD70B5040004D094F8C6
:100C10003D00002510B106E0012070BD84F83C5075
:100C2000204600F023F8242084F83D002068C168A5
:100C300021F40051C160204600F062F9206801698A
:100C400021F4904101612068416921F02A0141614C
:100C50002068C16841F40051C1602564202084F8F7
:100C60003D0084F83E00002070BD000010B586B045
:100C7000044614216846FFF70EFB1349206888429A
:100C800020D112480021026842F40032026000685C
:100C900000F4003005900D481038026842F001025F
:100CA0000260006800F0010005900C200090022016
:100CB000CDE9010103200390072004906946044810
:100CC000FFF728FB06B010BD00440040403802404A
:100CD000000002402DE9F84F044690F83E009A4685
:100CE00016460D46202853D1FDB1F6B194F83C00CC
:100CF00001284DD0012084F83C00002727642220E1
:100D000084F83E002763FFF7F3FBA6858146E6855E
:100D1000A0684FF48058404501D1206940B12E466B
:100D20005FF0000584F83C7027E00120BDE8F88FF3
:100D30000026F7E74B46002220212046CDF800A0F0
:100D400000F064F908B10320F0E726B1A06840453F
:100D50001BD038B108E020684068C0F3080025F8CF
:100D6000020B07E0206980B12068406800F07F0036
:100D700006F8010BE08D401EE085E08D0028D9D1FA
:100D8000202084F83E000020D0E720684068EFE78C
:100D90000220CBE72DE9F843044690F83D001F46BA
:100DA00016460D4620284CD1C5B1BEB194F83C0082
:100DB000012846D0012084F83C004FF00008C4F818
:100DC0004080212084F83D00FFF792FBA6848146F5
:100DD000E684A068B0F5805F03D004E00120BDE8A0
:100DE000F883206928B12E465FF0000584F83C8026
:100DF0000EE00026FAE78021204600F007F9A0B9AE
:100E0000AEB116F8010B21684860E08C401EE0840A
:100E1000E08C4B464FF0000200970028EBD14FF0DA
:100E20004001204600F0F2F830B10320D7E735F852
:100E3000020BC0F30800E6E7202084F83D00002004
:100E4000CDE70220CBE7FEE7FEE7FEE770477047FD
:100E50007047FFF753BB000030B593B034216846AC
:100E6000FFF719FA14210DA8FFF715FA1E480025FF
:100E7000016841F080510160006800F080501290DC
:100E80001A48016821F4404141F480410160006842
:100E9000022400F4404012900120009000040190D0
:100EA0008001CDE90640082008904FF4A870CDE9F4
:100EB00009040B9468460C94FFF7C6FC08B172B69F
:100EC000FEE70F20CDE90D0480200F904001CDE911
:100ED000100502210DA8FFF7B3FB002801D072B660
:100EE000FEE713B030BD0000403802400070004003
:100EF0000248016841F470010160704788ED00E02C
:100F000070B5044600680169E26821F4405111435C
:100F100001612169A068E2690843616911430843DE
:100F20002168CA6849F20C639A430243CA60206888
:100F30004169A26921F4407111434161314920683E
:100F4000884202D03049884202D1FFF723FC01E0F9
:100F5000FFF710FCE2690023192164253226B2F55F
:100F6000004F626828D0A0FB0101930F9200FFF7A9
:100F700047F90146B0FBF5F06FF01802504301EB62
:100F8000800006EB0010B0FBF5F000F0F002B1FBC2
:100F9000F5F002EB0012B1FBF5F06FF018035843C7
:100FA00001EB800006EB0010B0FBF5F000F00F0045
:100FB00021681044886070BDA0FB010192185B415C
:100FC000FFF71EF90146B0FBF5F00201B1FBF5F0A9
:100FD0006FF01803584301EB800006EBC000B0FB34
:100FE000F5F000F0F80002EB4002B1FBF5F05843D9
:100FF00001EB800006EBC000B0FBF5F000F007004D
:10100000D6E7000000100140001401402DE9F04136
:10101000984617460E460446069D1DE0681C1BD0E8
:101020002DB1FFF765FAA0EB0800A84214D920689B
:10103000C16821F4D071C1602068416921F00101CB
:101040004161202084F83D0084F83E00002084F8AF
:101050003C000320BDE8F0812068006836EA00000B
:1010600004D00020B842D9D00020F3E70120F9E7EE
:10107000FEE700000FB4084B10B504A902AA0398BC
:1010800000F02CF8044602A9002000F052FA204695
:1010900010BC5DF814FB0000331500080907090EA9
:1010A000002804DB00F1E02080F80014704700F015
:1010B0000F0000F1E02080F8141D704702E008C81E
:1010C000121F08C1002AFAD170477047002001E0C2
:1010D00001C1121F002AFBD1704700002DE9FF4F0C
:1010E0008DB00F460546002606E025280BD0DDE929
:1010F0000F1290476D1C761C28780028F5D111B08E
:101100003046BDE8F08F0024A246A1460122E949FD
:1011100000E0044315F8013F203B02FA03F00842C7
:10112000F7D128782A2810D06FF02F022878A0F164
:101130003001092914D80AEB8A0102EB410144F07D
:10114000020400EB010A6D1CF0E701CF5FEA000A20
:1011500003D544F40054CAF1000A44F002046D1CA3
:1011600028782E2817D115F8010F44F004042A28F6
:101170000ED06FF02F022878A0F1300109290AD88B
:1011800009EB890102EB410100EB01096D1CF2E75B
:1011900057F8049B6D1C28786C280FD006DC4C286F
:1011A00017D068280DD06A2814D104E0742810D014
:1011B0007A280FD10DE044F400140AE044F48014BE
:1011C00001E044F440146978814202D104F58014AE
:1011D0006D1C6D1C28786E281ED00CDC632830D066
:1011E00004DC00288BD0582811D19FE0642867D0F8
:1011F00069280CD164E073282DD004DC6F2872D0EC
:10120000702804D194E075286ED078286DD0DDE97F
:101210000F129047761C4BE1C4F30250022806D00F
:10122000032809D0042801CF09D0066040E101CF8E
:10123000F117C0E900613BE101CF068038E106709B
:1012400036E117F8040B8DF8000000208DF801003E
:10125000EB46012003E057F804BB4FF0FF30610775
:101260004FF0000102D40DE008F101018846494524
:101270000FDA8045F8DB1BF808100029F4D108E0EC
:1012800008F1010188468142FADB1BF808100029A9
:10129000F6D1DDE90F23AAEB08008146214600F0D4
:1012A00031F9304400EB080604E0DDE90F121BF8C9
:1012B000010B9047B8F10108F7D221464846F2E009
:1012C0000A21C4F302524FF0000B0891022A04D005
:1012D00001CFC117032A09D00AE0FF1D27F0070735
:1012E000F7E8020108E02CE01EE01FE000B2C117A1
:1012F000042A01D140B2C117021E71F1000206DAC0
:101300000023D0EB030063EB01012D2202E0220554
:1013100004D52B228DF82420012203E0E20701D01E
:101320002022F7E7904653E00A210BE0102109E064
:1013300010214FF0000B44F004044FF0080908910D
:1013400003E008214FF0000B0891C4F30252022A77
:1013500004D001CF0021032A06D006E0FF1D27F0AC
:101360000707F7E8020103E080B2042A00D1C0B207
:101370004FF0000822072BD52A78702A07D0DDF815
:1013800020C08CF0100C5CEA0B0C05D00EE0402263
:101390008DF82420012208E050EA010306D0302312
:1013A0008DF824308DF8252002229046089B83F08A
:1013B000080353EA0B030BD150EA010201D1620783
:1013C00006D530228DF824204FF00108A9F101093B
:1013D0002A78582A04D038A20B9208AA0A920BE065
:1013E0003AA2F9E75B46089AFEF70AFF0B9B9B5C63
:1013F0000A9A521E0A92137050EA0102F2D10A9818
:10140000ADEB000000F1200B600702D524F480341E
:1014100001E04FF00109D94502DDA9EB0B0000E026
:10142000002000EB0B0141440890AAEB010AE00305
:1014300006D4DDE90F232146504600F063F8064448
:101440004FF0000908E009A911F80900DDE90F12C1
:10145000904709F10109761CC145F4DBE0030CD586
:10146000DDE90F232146504600F04CF8064404E025
:10147000DDE90F1230209047761C0899481E08902D
:101480000029F5DC08E00A980A990078491C0A91BD
:10149000DDE90F129047761CBBF10001ABF1010BA7
:1014A000F1DC21465046DDE90F2300F019F806442F
:1014B0006D1C21E6092801003031323334353637CE
:1014C0003839616263646566000000003031323390
:1014D0003435363738394142434445460000000030
:1014E0002DE9F041044600251E461746880404D421
:1014F00005E039462020B0476D1C641EF9D528460A
:10150000BDE8F0812DE9F041044600251E469046D5
:10151000C80301D5302700E02027880404D505E062
:1015200041463846B0476D1C641EF9D52846BDE8D3
:10153000F0810A68531C0B60107070472DE9F0436E
:10154000174606468DB01D461A4634A13748FFF7A8
:1015500091FDDFF8DC80354982B24FF47A79C8F822
:10156000000044464B4601F13400FFF713FC31A163
:101570002E48FFF77FFD2D4982B220604B4601F1D6
:101580003400FFF707FC00241DE02EA12748FFF7D9
:1015900071FD264982B2C8F800004B4601F13400C3
:1015A000FFF7F8FB3A5D2AA16A4032551F48FFF762
:1015B00061FD1E4982B2C8F800004B4601F13400BB
:1015C000FFF7E8FB641C3A5D002ADED122A1174830
:1015D000FFF750FD154982B2C8F8000044464B465B
:1015E00001F13400FFF7D6FB0027E8460FE06A4020
:1015F00008F8072015A10D48FFF73CFD0B4982B202
:1016000020604B4601F13400FFF7C4FB7F1CF25D04
:10161000002AECD10DB0BDE8F08300000A0D206374
:101620006C65203D20256420000000002000002083
:10163000000000204D445020656E636F6465203AC1
:10164000200000000A0D737263203D2025632000F6
:101650000A0D2578200000004D4450206465636F1A
:101660006465203A20000000C0B054216846FEF7AF
:1016700012FE542116A8FEF70EFE54212BA8FEF7E9
:101680000AFEFEF743FFFFF7E7FB40480021026830
:1016900042F080020260026802F080021592026845
:1016A00042F0010202600068394A00F00100159022
:1016B000384802604FF4165242604FF48052C0E93D
:1016C0000221921002610C22C0E90521C161FFF7DD
:1016D0009BFA08B172B6FEE72E482FA13438FFF707
:1016E000C9FC374D2B4982B24FF47A7628603346D5
:1016F00034392848FFF74EFB41F2883405E0234691
:10170000512269462348FFF7E5FA9DF800000028BA
:10171000F5D00024684600E0641C015D0029FBD17F
:10172000FEF7A0FD9DF8001004FB0010FEF7A4FDDD
:10173000FEF798FD1A2190FBF1F201FB12006860A0
:10174000FEF790FD9DF8001004FB0010FEF794FDDD
:10175000FEF788FDFF2190FBF1F201FB1200A8606B
:101760000C486A4617A13438FFF784FC094982B255
:101770002860334634390748FFF70CFB2B7A6A465A
:10178000512116A8FFF7DAFEFEE7000030380240CC
:101790000044004054000020566575696C6C657A01
:1017A00020656E7472657220766F747265206D6F3D
:1017B000742064652070617373650A0D0000000079
:1017C0000000002025730A0D00000000000000004A
:1017D00000000000010203040607080900000000E1
:1017E000010203040418000800000020200000008B
:1017F000BC10000824180008200000207804000015
:10180000CC100008000000000000000000000000F4
:101810000100000010000000000000000024F4009F
:0418200000000000C4
:04000005080001C529
:00000001FF
