:020000040800F2
:1000000058040020DD0100084F0E00084B0E0008C8
:100010004D0E0008150300087510000800000000D0
:10002000000000000000000000000000550E000865
:100030001703000800000000510E0008570E0008CA
:10004000F7010008F7010008F7010008F7010008B0
:10005000F7010008530E0008F7010008F701000837
:10006000F7010008F7010008F7010008F701000890
:10007000F7010008F7010008F7010008F701000880
:10008000F7010008F7010008F7010008F701000870
:10009000F7010008F7010008F7010008F701000860
:1000A000F7010008F7010008F7010008F701000850
:1000B000F7010008F7010008F7010008F701000840
:1000C000F7010008F7010008F7010008F701000830
:1000D000F7010008F7010008F7010008F701000820
:1000E000F7010008F7010008F7010008F701000810
:1000F000F7010008F7010008F7010008F701000800
:10010000F7010008F7010008F7010008F7010008EF
:10011000F7010008F7010008F7010008F7010008DF
:10012000F7010008F7010008F7010008F7010008CF
:10013000F70100080000000000000000F7010008BF
:10014000F7010008F7010008F7010008F7010008AF
:10015000F7010008F7010008F7010008F70100089F
:10016000F7010008F7010008F7010008F70100088F
:10017000F7010008F7010008F7010008000000007F
:1001800000000000F701000800000000000000006F
:10019000F70100080000000000000000F70100085F
:1001A000000000000000000000000000F70100084F
:1001B000F7010008F7010008F7010008F70100083F
:1001C000F7010008DFF810D000F092F8004800476F
:1001D0002D140008AFF30080580400200648804723
:1001E00006480047FEE7FEE7FEE7FEE7FEE7FEE71C
:1001F000FEE7FEE7FEE7FEE7F50E0008C501000892
:100200002DE9F05F0546002092469B46884606464B
:10021000814640241BE0284641464746224600F0DE
:1002200057F853465A46C01A914110D31146184602
:10023000224600F03EF82D1A67EB01084F46224691
:100240000120002100F035F817EB00094E41201E77
:10025000A4F10104DFDC484631462A464346BDE8A6
:10026000F09FD2B201E000F8012B491EFBD270478B
:100270000022F6E710B513460A4604461946FFF772
:10028000F0FF204610BD30B50B460146002020226D
:10029000012409E021FA02F59D4205D303FA02F593
:1002A000491B04FA02F52844151EA2F10102F1DCF3
:1002B00030BD202A04DB203A00FA02F1002070470A
:1002C0009140C2F1200320FA03F319439040704794
:1002D000202A04DB203A21FA02F00021704721FA9B
:1002E00002F3D040C2F12002914008431946704702
:1002F000064C074D06E0E06840F0010394E8070073
:1003000098471034AC42F6D3FFF760FF3C15000865
:100310005C150008FEE770472DE9F84FDFF8ACA147
:10032000002201240AF1040B03254FF00F090BF101
:10033000040E00BF0B6804FA02F63340B34272D1D8
:100340000F7907F00307012F01D0022F16D187681C
:100350004FEA420805FA08FC27EA0C07D1F80CC05E
:100360000CFA08FC4CEA070CC0F808C04768B74311
:100370000E79C6F3001696403E4346600E79F6436A
:10038000B6070AD0C6684FEA420C05FA0CF7BE431E
:100390008F6807FA0CF73743C7600E7906F003063B
:1003A000022E10D1D60800EB8608D8F82060570737
:1003B0004FEAD76C09FA0CF7BE430F6907FA0CF73E
:1003C0003743C8F8207006684FEA420C05FA0CF76C
:1003D000BE430F7907F0030707FA0CF737430760AE
:1003E0004E68F6006BD53A4E376847F48047376061
:1003F000366822F0030706F480460096354E07EB78
:10040000060CDCF8086897074FEA177809FA08F72E
:10041000BE43314FB84201D100271FE02F4FB842F1
:1004200002D101271AE04AE02D4FB84201D102273C
:1004300014E02C4FB84201D103270FE02A4FB842F5
:1004400001D104270AE0294FB84201D1052705E070
:10045000274FB84201D1062700E0072707FA08F71F
:100460003743CCF80878DAF800605746D1F804C072
:100470009E435FEACC3C00D51E433E60DBF8006043
:100480005F46D1F804C09E435FEA8C3C00D51E4312
:100490003E60DEF800607746D1F804C09E435FEA14
:1004A000CC2C00D51E433E60084F0C373E68D1F877
:1004B00004C09E435FEA8C2C00D51E433E60521C54
:1004C000102AFFF437AFBDE8F88F0000003C014070
:1004D0004438024000300140000002400004024065
:1004E00000080240000C02400010024000140240CC
:1004F000001802400148806870470000000000209A
:100500000248816802781144816070470000002031
:100510000B4810B5016841F400710160016841F4B5
:1005200080610160016841F480710160032000F086
:1005300077F8002000F006F800F024F8002010BD45
:10054000003C024070B50D4D04464FF47A71287896
:10055000B1FBF0F00A490968B1FBF0F000F042FB92
:1005600048B9102C07D200222146501E00F038F85E
:1005700000206C6070BD012070BD000000000020F4
:100580000C0000200E4808B5016841F4804101606C
:10059000006800F4804000900948001F016841F0A5
:1005A000805101600068002200F0805000901146E8
:1005B000052000F015F8BDE80840052000F002B85D
:1005C00044380240002809DB00F01F02012191405D
:1005D0004009800000F1E020C0F8001170470000E1
:1005E000F0B40E4B1B680C46C3F30223C3F107059E
:1005F000042D00D90425191D072901D2002300E08C
:10060000DB1E012606FA05F1491E214099409E4055
:10061000761E16403143F0BC00F042BD0CED00E008
:10062000064900F0070208684FF6FF03184040EA49
:100630000220034A10430860704700000CED00E000
:100640000000FA052DE9F0470E46050065D0DFF8F9
:100650001481D8F80000F7B200F00F00B04207D2C2
:1006600088F80070D8F8000000F00F00B04254D1B4
:1006700028683D4C810712D5400703D5206840F417
:10068000E05020602878000703D5206840F46040DF
:1006900020602068A96820F0F000084320602878D6
:1006A000C0072DD0304968680839012812D00228C7
:1006B00013D0032811D00968890700292DDA216891
:1006C00021F0030101432160FFF714FF814641F24D
:1006D000883A0EE009688903EFE709688901ECE7C9
:1006E000FFF708FFA0EB0901514502D90320BDE83F
:1006F000F0872068696800F00C00B0EB810FEFD143
:10070000D8F80010404601F00F01B14207D9077038
:10071000006800F00F00B04201D00120E7E7287820
:10072000400705D52068E96820F4E05008432060C0
:100730002878000706D52068296920F4604040EA3F
:10074000C100206000F038F82168084AC1F30311A5
:10075000515CC8400649086006480068FFF7F2FE91
:100760000020C4E7003C024008380240241500087D
:100770000C000020040000200448054900680968B6
:10078000044AC1F38221515CC84070470C0000202C
:100790000838024034150008044805490068096813
:1007A000044AC1F34231515CC84070470C0000203C
:1007B0000838024034150008224810B5006810F0CF
:1007C0000C02214815D04110042A11D01D4C241FC1
:1007D000082A0FD00C2A0CD12268236802F03F02AD
:1007E0005B0221D52068C0F38810A0FB010120E046
:1007F000084610BD2268236802F03F025B0205D55F
:100800002068C0F38810A0FB010104E02168C1F357
:100810008811A1FB00010023FFF7F2FC2168C1F35E
:100820000141491C49000AE02168C1F38811A1FB7C
:1008300000010023FFF7E4FC2168C1F30271B0FB63
:10084000F1F010BD083802400024F4002DE9F84F03
:1008500004007DD0DFF878B32078ABF10407C0073F
:10086000A7F1040550D0DBF800105846C1F3810110
:1008700001290FD00168C1F38101022902D1396831
:10088000490207D40068C0F38100032809D1386801
:10089000400206D52868800336D560680028D8D085
:1008A00032E06068B0F5803F10D0B0F5A02F286826
:1008B00010D020F480302860286820F48020286040
:1008C0006068A0B1FFF716FE06460CE0286840F409
:1008D0008030F4E740F480202860F7E7FFF70AFE55
:1008E000801B642876D828688003F7D50CE0FFF7D2
:1008F00001FE064605E000BFFFF7FCFD801B6428F3
:10090000F0D828688003F7D42078DFF8C8928007F1
:100910004FF0000A44D5DBF80010584611F00C0FD8
:100920000FD00168C1F38101022902D1396849025F
:1009300007D50068C0F3810003280AD13868400257
:1009400007D42868800715D5E068012800D111E098
:100950003AE1E068B0B10120C9F80000FFF7CAFD34
:10096000064604E0FFF7C6FD801B0228BAD82868B7
:100970008007F7D52868216920F0F80040EAC10017
:1009800028600DE0C9F800A0FFF7B4FD064604E0BA
:10099000FFF7B0FD801B02281CD828688007F7D419
:1009A0002078000727D5DFF828828B48616908F195
:1009B0006C0881B101210160FFF79CFD064604E04F
:1009C000FFF798FD801B022804D8D8F800008007A4
:1009D000F6D510E089E0C0F800A0FFF78BFD0646D1
:1009E00005E000BFFFF786FD801B02287DD8D8F800
:1009F00000008007F6D42078400769D574484FF08E
:100A0000000838300068C0000BD4714838300168E5
:100A100041F08051016000684FF0010800F0805003
:100A200000906E4E3068C00511D4306840F480707C
:100A30003060FFF75FFD009006E000BFFFF75AFD52
:100A40000099401A022850D83068C005F6D5604E8B
:100A5000A068683601280FD00528306810D020F033
:100A600001003060306820F004003060A068B8B148
:100A7000FFF740FD00900FE0306840F00100F4E720
:100A800040F004003060F7E7FFF734FD0099411AA9
:100A900041F28830814264D830688007F4D50EE096
:100AA000FFF728FD009007E0FFF724FD0099411AA9
:100AB00041F28830814254D830688007F4D4B8F1CC
:100AC000000F05D042483830016821F080510160A4
:100AD000A069A8B3DBF80010C1F38101022947D057
:100AE0000228C9F860A005D000E03AE0FFF702FD57
:100AF000044639E0FFF7FEFC064604E0FFF7FAFC87
:100B0000801B02282DD828688001F7D4F4E907015A
:100B10000843E168324A490802EB0141A26841EA10
:100B200082110843217C40EA0160217D40EA017086
:100B300038600120C9F86000FFF7DCFC044606E0DD
:100B400044E000BFFFF7D6FC001B022809D8286844
:100B50008001F7D53AE000BFFFF7CCFC001B02286C
:100B600002D90320BDE8F88F28688001F4D42DE075
:100B70000128F7D03868E26900F48001914223D15E
:100B8000226A00F03F0191421ED147F6C071626AAD
:100B90000140B1EB821F17D1A26A4FF0FF3300F47E
:100BA000403103EB5202B1EB024F0DD194F82C20EF
:100BB00000F07061B1EB026F06D194F8301000F0D4
:100BC000E040B0EB017F01D00120CBE70020C9E776
:100BD0000838024000004742800E47420070004043
:100BE0000000FFFF10B5401EB0F1807F01D301204F
:100BF00010BD4FF0E02460610F21601700F050FA43
:100C00000020A06107202061002010BD70B5040005
:100C100004D094F83D00002510B106E0012070BD1D
:100C200084F83C50204600F023F8242084F83D004E
:100C30002068C16821F40051C160204600F062F9CB
:100C40002068016921F4904101612068416921F027
:100C50002A0141612068C16841F40051C1602564E6
:100C6000202084F83D0084F83E00002070BD000084
:100C700010B586B0044614216846FFF7F9FA134907
:100C80002068884220D112480021026842F40032D4
:100C90000260006800F4003005900D4810380268CA
:100CA00042F001020260006800F0010005900C2093
:100CB00000900220CDE90101032003900720049059
:100CC00069460448FFF728FB06B010BD0044004009
:100CD00040380240000002402DE9F84F044690F8E9
:100CE0003E009A4616460D46202853D1FDB1F6B176
:100CF00094F83C0001284DD0012084F83C000027E6
:100D00002764222084F83E002763FFF7F3FBA685C3
:100D10008146E685A0684FF48058404501D120699E
:100D200040B12E465FF0000584F83C7027E00120BA
:100D3000BDE8F88F0026F7E74B4600222021204629
:100D4000CDF800A000F064F908B10320F0E726B167
:100D5000A06840451BD038B108E020684068C0F367
:100D6000080025F8020B07E0206980B12068406880
:100D700000F07F0006F8010BE08D401EE085E08D5D
:100D80000028D9D1202084F83E000020D0E7206838
:100D90004068EFE70220CBE72DE9F843044690F8DE
:100DA0003D001F4616460D4620284CD1C5B1BEB1A8
:100DB00094F83C00012846D0012084F83C004FF014
:100DC0000008C4F84080212084F83D00FFF792FB22
:100DD000A6848146E684A068B0F5805F03D004E075
:100DE0000120BDE8F883206928B12E465FF0000598
:100DF00084F83C800EE00026FAE78021204600F0CF
:100E000007F9A0B9AEB116F8010B21684860E08C73
:100E1000401EE084E08C4B464FF000020097002813
:100E2000EBD14FF04001204600F0F2F830B1032042
:100E3000D7E735F8020BC0F30800E6E7202084F876
:100E40003D000020CDE70220CBE7FEE7FEE7FEE70E
:100E5000704770477047FFF753BB000030B593B041
:100E600034216846FFF704FA14210DA8FFF700FAB1
:100E70001E480025016841F080510160006800F0C3
:100E8000805012901A48016821F4404141F4804199
:100E900001600068022400F440401290012000909C
:100EA000000401908001CDE90640082008904FF42D
:100EB000A870CDE909040B9468460C94FFF7C6FCB2
:100EC00008B172B6FEE70F20CDE90D0480200F9027
:100ED0004001CDE9100502210DA8FFF7B3FB002862
:100EE00001D072B6FEE713B030BD000040380240BA
:100EF000007000400248016841F4700101607047D1
:100F000088ED00E070B5044600680169E26821F4EC
:100F10004051114301612169A068E2690843616998
:100F2000114308432168CA6849F20C639A4302439B
:100F3000CA6020684169A26921F44071114341618E
:100F400031492068884202D03049884202D1FFF7F7
:100F500023FC01E0FFF710FCE2690023192164255E
:100F60003226B2F5004F626828D0A0FB0101930F32
:100F70009200FFF745F90146B0FBF5F06FF018025B
:100F8000504301EB800006EB0010B0FBF5F000F0E1
:100F9000F002B1FBF5F002EB0012B1FBF5F06FF0DF
:100FA0001803584301EB800006EB0010B0FBF5F08E
:100FB00000F00F0021681044886070BDA0FB0101A3
:100FC00092185B41FFF71CF90146B0FBF5F00201F6
:100FD000B1FBF5F06FF01803584301EB800006EB0E
:100FE000C000B0FBF5F000F0F80002EB4002B1FBEE
:100FF000F5F0584301EB800006EBC000B0FBF5F0C4
:1010000000F00700D6E70000001001400014014086
:101010002DE9F041984617460E460446069D1DE010
:10102000681C1BD02DB1FFF765FAA0EB0800A842A1
:1010300014D92068C16821F4D071C1602068416969
:1010400021F001014161202084F83D0084F83E0038
:10105000002084F83C000320BDE8F081206800688F
:1010600036EA000004D00020B842D9D00020F3E7CF
:101070000120F9E7FEE700000FB4084B10B504A902
:1010800002AA039800F02CF8044602A9002000F000
:10109000C8F9204610BC5DF814FB000023140008BA
:1010A0000907090E002804DB00F1E02080F8001495
:1010B000704700F00F0000F1E02080F8141D704729
:1010C00002E008C8121F08C1002AFAD17047704711
:1010D000002001E001C1121F002AFBD1704700006F
:1010E0002DE9FF4F8BB088460546002606E02528EF
:1010F0000BD0DDE90D1290476D1C761C2878002876
:10110000F5D10FB03046BDE8F08F0024A146A246CD
:101110000122AE4900E0044315F8013F203B02FAEA
:1011200003F00842F7D128782A2810D06FF02F0258
:101130002878A0F13001092915D809EB890102EBC3
:10114000410144F0020400EB01096D1CF0E758F87E
:10115000041B5FEA010903D544F40054C9F10009F6
:1011600044F002046D1C28782E2817D115F8010FC1
:1011700044F004042A280ED06FF02F022878A0F142
:10118000300109290AD80AEB8A0102EB410100EB80
:10119000010A6D1CF2E758F804AB6D1C28786C2826
:1011A0000FD006DC4C2817D068280DD06A2814D13F
:1011B00004E0742810D07A280FD10DE044F4001414
:1011C0000AE044F4801401E044F440146978814258
:1011D00002D104F580146D1C6D1C2878692865D037
:1011E00006DC00288DD0632827D0642806D15DE076
:1011F0006E2808D073282AD0752877D0DDE90D1223
:101200009047761CE0E0C4F30250022809D003287E
:101210000DD0D8F8001004280DD00E6008F1040895
:10122000D2E0D8F80010F217C1E90062F6E7D8F86A
:1012300000100E80F2E70E70F0E718F8041B8DF82E
:10124000001000208DF80100EB46012003E058F863
:1012500004BB4FF0FF3061074FF0000701D40AE0F4
:101260007F1C57450DDA8742FADB1BF8071000296F
:10127000F6D106E07F1C8742FCDB1BF80710002933
:10128000F8D1DDE90D23A9EB07008146214600F0E6
:10129000B1F83044C61904E0DDE90D121BF8010B6A
:1012A00090477F1EF8D22146484688E058F8040B44
:1012B000C4F302514FF00A0B032900D100B20429F4
:1012C00000D140B2002802DA40422D2102E021057F
:1012D00005D52B218DF82410012104E006E0E1075B
:1012E00010D02021F6E708AF089113E058F8040B5E
:1012F000C4F302514FF00A0B032900D180B2042934
:1013000000D1C0B20021EEE75946FEF7BCFF3031F4
:1013100007F8011D0028F7D1ADEB070000F1200B05
:10132000600702D524F4803401E04FF0010ADA4569
:1013300002DDAAEB0B0000E00020824600EB0B016F
:1013400008980144A9EB01000A90E00306D4DDE906
:101350000D2321460A9800F04DF806444FF000098D
:1013600008E009A911F80900DDE90D12904709F11B
:101370000109761C08998945F3DBE0030CD5DDE90A
:101380000D2321460A9800F035F8064404E0DDE913
:101390000D1230209047761CBAF10001AAF1010A23
:1013A000F5DC05E0DDE90D1217F8010B9047761C1E
:1013B000BBF10001ABF1010BF4DC0A982146DDE939
:1013C0000D2300F005F806446D1C97E6092801007E
:1013D0002DE9F041044600251E461746880404D432
:1013E00005E039462020B0476D1C641EF9D528461B
:1013F000BDE8F0812DE9F041044600251E469046E7
:10140000C80301D5302700E02027880404D505E073
:1014100041463846B0476D1C641EF9D52846BDE8E4
:10142000F0810A68531C0B6010707047ACB05421F7
:1014300015A8FEF71DFF54216846FEF719FFFFF7B8
:1014400067F8FFF70BFD25480021026842F0800293
:101450000260026802F080022A92026842F00102F1
:10146000026000681E4A00F001002A901D480260D8
:101470004FF4165242604FF48052C0E9022192109C
:1014800002610C22C0E90521C161FFF7BFFB08B171
:1014900072B6FEE714A115A8FFF7EEFD82B24FF475
:1014A0007A74234615A90F48FFF776FC05E023461A
:1014B000512269460B48FFF70FFC9DF800000028F9
:1014C000F5D06B461A4611A115A8FFF7D5FD82B2DB
:1014D000234615A90348FFF75FFCFEE730380240BA
:1014E0000044004010000020656E7472657A20761A
:1014F0006F74726520636861696E6520646520633E
:101500006172616374E872650A0D00005043203A0D
:101510002025730A0D53544D3332203A2025730A87
:101520000D000000000000000000000001020304A4
:101530000607080900000000010203045C1500080A
:101540000000002010000000C01000086C1500080A
:101550001000002048040000D01000080100000026
:0C15600010000000000000000024F40057
:04000005080001C529
:00000001FF
